{
	"_format": "hh-sol-artifact-1",
	"contractName": "ERC721Contract",
	"sourceName": "contracts/ERC721Contract.sol",
	"abi": [
		{
			"inputs": [],
			"stateMutability": "nonpayable",
			"type": "constructor"
		},
		{
			"anonymous": false,
			"inputs": [
				{
					"indexed": true,
					"internalType": "address",
					"name": "owner",
					"type": "address"
				},
				{
					"indexed": true,
					"internalType": "address",
					"name": "approved",
					"type": "address"
				},
				{
					"indexed": true,
					"internalType": "uint256",
					"name": "tokenId",
					"type": "uint256"
				}
			],
			"name": "Approval",
			"type": "event"
		},
		{
			"anonymous": false,
			"inputs": [
				{
					"indexed": true,
					"internalType": "address",
					"name": "owner",
					"type": "address"
				},
				{
					"indexed": true,
					"internalType": "address",
					"name": "operator",
					"type": "address"
				},
				{
					"indexed": false,
					"internalType": "bool",
					"name": "approved",
					"type": "bool"
				}
			],
			"name": "ApprovalForAll",
			"type": "event"
		},
		{
			"anonymous": false,
			"inputs": [
				{
					"indexed": true,
					"internalType": "address",
					"name": "previousOwner",
					"type": "address"
				},
				{
					"indexed": true,
					"internalType": "address",
					"name": "newOwner",
					"type": "address"
				}
			],
			"name": "OwnershipTransferred",
			"type": "event"
		},
		{
			"anonymous": false,
			"inputs": [
				{
					"indexed": true,
					"internalType": "address",
					"name": "from",
					"type": "address"
				},
				{
					"indexed": true,
					"internalType": "address",
					"name": "to",
					"type": "address"
				},
				{
					"indexed": true,
					"internalType": "uint256",
					"name": "tokenId",
					"type": "uint256"
				}
			],
			"name": "Transfer",
			"type": "event"
		},
		{
			"inputs": [
				{
					"internalType": "address",
					"name": "to",
					"type": "address"
				},
				{
					"internalType": "uint256",
					"name": "tokenId",
					"type": "uint256"
				}
			],
			"name": "approve",
			"outputs": [],
			"stateMutability": "nonpayable",
			"type": "function"
		},
		{
			"inputs": [
				{
					"internalType": "address",
					"name": "owner",
					"type": "address"
				}
			],
			"name": "balanceOf",
			"outputs": [
				{
					"internalType": "uint256",
					"name": "",
					"type": "uint256"
				}
			],
			"stateMutability": "view",
			"type": "function"
		},
		{
			"inputs": [
				{
					"internalType": "uint256",
					"name": "tokenId",
					"type": "uint256"
				}
			],
			"name": "getApproved",
			"outputs": [
				{
					"internalType": "address",
					"name": "",
					"type": "address"
				}
			],
			"stateMutability": "view",
			"type": "function"
		},
		{
			"inputs": [
				{
					"internalType": "address",
					"name": "owner",
					"type": "address"
				}
			],
			"name": "getOwnedNFTs",
			"outputs": [
				{
					"internalType": "string[]",
					"name": "",
					"type": "string[]"
				}
			],
			"stateMutability": "view",
			"type": "function"
		},
		{
			"inputs": [
				{
					"internalType": "string",
					"name": "_tokenURI",
					"type": "string"
				}
			],
			"name": "getTokenId",
			"outputs": [
				{
					"internalType": "uint256",
					"name": "",
					"type": "uint256"
				}
			],
			"stateMutability": "view",
			"type": "function"
		},
		{
			"inputs": [
				{
					"internalType": "address",
					"name": "owner",
					"type": "address"
				},
				{
					"internalType": "address",
					"name": "operator",
					"type": "address"
				}
			],
			"name": "isApprovedForAll",
			"outputs": [
				{
					"internalType": "bool",
					"name": "",
					"type": "bool"
				}
			],
			"stateMutability": "view",
			"type": "function"
		},
		{
			"inputs": [],
			"name": "name",
			"outputs": [
				{
					"internalType": "string",
					"name": "",
					"type": "string"
				}
			],
			"stateMutability": "view",
			"type": "function"
		},
		{
			"inputs": [],
			"name": "owner",
			"outputs": [
				{
					"internalType": "address",
					"name": "",
					"type": "address"
				}
			],
			"stateMutability": "view",
			"type": "function"
		},
		{
			"inputs": [
				{
					"internalType": "uint256",
					"name": "tokenId",
					"type": "uint256"
				}
			],
			"name": "ownerOf",
			"outputs": [
				{
					"internalType": "address",
					"name": "",
					"type": "address"
				}
			],
			"stateMutability": "view",
			"type": "function"
		},
		{
			"inputs": [],
			"name": "renounceOwnership",
			"outputs": [],
			"stateMutability": "nonpayable",
			"type": "function"
		},
		{
			"inputs": [
				{
					"internalType": "string",
					"name": "_tokenURI",
					"type": "string"
				}
			],
			"name": "safeMint",
			"outputs": [
				{
					"internalType": "uint256",
					"name": "",
					"type": "uint256"
				}
			],
			"stateMutability": "nonpayable",
			"type": "function"
		},
		{
			"inputs": [
				{
					"internalType": "address",
					"name": "from",
					"type": "address"
				},
				{
					"internalType": "address",
					"name": "to",
					"type": "address"
				},
				{
					"internalType": "uint256",
					"name": "tokenId",
					"type": "uint256"
				}
			],
			"name": "safeTransferFrom",
			"outputs": [],
			"stateMutability": "nonpayable",
			"type": "function"
		},
		{
			"inputs": [
				{
					"internalType": "address",
					"name": "from",
					"type": "address"
				},
				{
					"internalType": "address",
					"name": "to",
					"type": "address"
				},
				{
					"internalType": "uint256",
					"name": "tokenId",
					"type": "uint256"
				},
				{
					"internalType": "bytes",
					"name": "data",
					"type": "bytes"
				}
			],
			"name": "safeTransferFrom",
			"outputs": [],
			"stateMutability": "nonpayable",
			"type": "function"
		},
		{
			"inputs": [
				{
					"internalType": "address",
					"name": "operator",
					"type": "address"
				},
				{
					"internalType": "bool",
					"name": "approved",
					"type": "bool"
				}
			],
			"name": "setApprovalForAll",
			"outputs": [],
			"stateMutability": "nonpayable",
			"type": "function"
		},
		{
			"inputs": [
				{
					"internalType": "string",
					"name": "baseURI_",
					"type": "string"
				}
			],
			"name": "setBaseURI",
			"outputs": [],
			"stateMutability": "nonpayable",
			"type": "function"
		},
		{
			"inputs": [
				{
					"internalType": "bytes4",
					"name": "interfaceId",
					"type": "bytes4"
				}
			],
			"name": "supportsInterface",
			"outputs": [
				{
					"internalType": "bool",
					"name": "",
					"type": "bool"
				}
			],
			"stateMutability": "view",
			"type": "function"
		},
		{
			"inputs": [],
			"name": "symbol",
			"outputs": [
				{
					"internalType": "string",
					"name": "",
					"type": "string"
				}
			],
			"stateMutability": "view",
			"type": "function"
		},
		{
			"inputs": [
				{
					"internalType": "uint256",
					"name": "tokenId",
					"type": "uint256"
				}
			],
			"name": "tokenURI",
			"outputs": [
				{
					"internalType": "string",
					"name": "",
					"type": "string"
				}
			],
			"stateMutability": "view",
			"type": "function"
		},
		{
			"inputs": [
				{
					"internalType": "address",
					"name": "from",
					"type": "address"
				},
				{
					"internalType": "address",
					"name": "to",
					"type": "address"
				},
				{
					"internalType": "uint256",
					"name": "tokenId",
					"type": "uint256"
				}
			],
			"name": "transferFrom",
			"outputs": [],
			"stateMutability": "nonpayable",
			"type": "function"
		},
		{
			"inputs": [
				{
					"internalType": "address",
					"name": "newOwner",
					"type": "address"
				}
			],
			"name": "transferOwnership",
			"outputs": [],
			"stateMutability": "nonpayable",
			"type": "function"
		}
	],
	"bytecode": "0x60806040523480156200001157600080fd5b506040518060400160405280600781526020017f4d79546f6b656e000000000000000000000000000000000000000000000000008152506040518060400160405280600381526020017f4d544b000000000000000000000000000000000000000000000000000000000081525081600090816200008f919062000412565b508060019081620000a1919062000412565b505050620000c4620000b8620000ca60201b60201c565b620000d260201b60201c565b620004f9565b600033905090565b6000600660009054906101000a900473ffffffffffffffffffffffffffffffffffffffff16905081600660006101000a81548173ffffffffffffffffffffffffffffffffffffffff021916908373ffffffffffffffffffffffffffffffffffffffff1602179055508173ffffffffffffffffffffffffffffffffffffffff168173ffffffffffffffffffffffffffffffffffffffff167f8be0079c531659141344cd1fd0a4f28419497f9722a3daafe3b4186f6b6457e060405160405180910390a35050565b600081519050919050565b7f4e487b7100000000000000000000000000000000000000000000000000000000600052604160045260246000fd5b7f4e487b7100000000000000000000000000000000000000000000000000000000600052602260045260246000fd5b600060028204905060018216806200021a57607f821691505b60208210810362000230576200022f620001d2565b5b50919050565b60008190508160005260206000209050919050565b60006020601f8301049050919050565b600082821b905092915050565b6000600883026200029a7fffffffffffffffffffffffffffffffffffffffffffffffffffffffffffffffff826200025b565b620002a686836200025b565b95508019841693508086168417925050509392505050565b6000819050919050565b6000819050919050565b6000620002f3620002ed620002e784620002be565b620002c8565b620002be565b9050919050565b6000819050919050565b6200030f83620002d2565b620003276200031e82620002fa565b84845462000268565b825550505050565b600090565b6200033e6200032f565b6200034b81848462000304565b505050565b5b8181101562000373576200036760008262000334565b60018101905062000351565b5050565b601f821115620003c2576200038c8162000236565b62000397846200024b565b81016020851015620003a7578190505b620003bf620003b6856200024b565b83018262000350565b50505b505050565b600082821c905092915050565b6000620003e760001984600802620003c7565b1980831691505092915050565b6000620004028383620003d4565b9150826002028217905092915050565b6200041d8262000198565b67ffffffffffffffff811115620004395762000438620001a3565b5b62000445825462000201565b6200045282828562000377565b600060209050601f8311600181146200048a576000841562000475578287015190505b620004818582620003f4565b865550620004f1565b601f1984166200049a8662000236565b60005b82811015620004c4578489015182556001820191506020850194506020810190506200049d565b86831015620004e45784890151620004e0601f891682620003d4565b8355505b6001600288020188555050505b505050505050565b61320c80620005096000396000f3fe608060405234801561001057600080fd5b506004361061012c5760003560e01c8063695850fb116100ad578063a22cb46511610071578063a22cb46514610355578063b88d4fde14610371578063c87b56dd1461038d578063e985e9c5146103bd578063f2fde38b146103ed5761012c565b8063695850fb146102af57806370a08231146102df578063715018a61461030f5780638da5cb5b1461031957806395d89b41146103375761012c565b80631e7663bc116100f45780631e7663bc146101fb57806323b872dd1461022b57806342842e0e1461024757806355f804b3146102635780636352211e1461027f5761012c565b806301ffc9a71461013157806306fdde0314610161578063081812fc1461017f578063095ea7b3146101af57806318148f1b146101cb575b600080fd5b61014b60048036038101906101469190611d79565b610409565b6040516101589190611dc1565b60405180910390f35b6101696104eb565b6040516101769190611e6c565b60405180910390f35b61019960048036038101906101949190611ec4565b61057d565b6040516101a69190611f32565b60405180910390f35b6101c960048036038101906101c49190611f79565b6105c3565b005b6101e560048036038101906101e09190611fb9565b6106da565b6040516101f291906120f2565b60405180910390f35b61021560048036038101906102109190612249565b610888565b60405161022291906122a1565b60405180910390f35b610245600480360381019061024091906122bc565b6108b0565b005b610261600480360381019061025c91906122bc565b610910565b005b61027d60048036038101906102789190612249565b610930565b005b61029960048036038101906102949190611ec4565b61094b565b6040516102a69190611f32565b60405180910390f35b6102c960048036038101906102c49190612249565b6109d1565b6040516102d691906122a1565b60405180910390f35b6102f960048036038101906102f49190611fb9565b610a90565b60405161030691906122a1565b60405180910390f35b610317610b47565b005b610321610b5b565b60405161032e9190611f32565b60405180910390f35b61033f610b85565b60405161034c9190611e6c565b60405180910390f35b61036f600480360381019061036a919061233b565b610c17565b005b61038b6004803603810190610386919061241c565b610c2d565b005b6103a760048036038101906103a29190611ec4565b610c8f565b6040516103b49190611e6c565b60405180910390f35b6103d760048036038101906103d2919061249f565b610df9565b6040516103e49190611dc1565b60405180910390f35b61040760048036038101906104029190611fb9565b610e8d565b005b60007f80ac58cd000000000000000000000000000000000000000000000000000000007bffffffffffffffffffffffffffffffffffffffffffffffffffffffff1916827bffffffffffffffffffffffffffffffffffffffffffffffffffffffff191614806104d457507f5b5e139f000000000000000000000000000000000000000000000000000000007bffffffffffffffffffffffffffffffffffffffffffffffffffffffff1916827bffffffffffffffffffffffffffffffffffffffffffffffffffffffff1916145b806104e457506104e382610f10565b5b9050919050565b6060600080546104fa9061250e565b80601f01602080910402602001604051908101604052809291908181526020018280546105269061250e565b80156105735780601f1061054857610100808354040283529160200191610573565b820191906000526020600020905b81548152906001019060200180831161055657829003601f168201915b5050505050905090565b600061058882610f7a565b6004600083815260200190815260200160002060009054906101000a900473ffffffffffffffffffffffffffffffffffffffff169050919050565b60006105ce8261094b565b90508073ffffffffffffffffffffffffffffffffffffffff168373ffffffffffffffffffffffffffffffffffffffff160361063e576040517f08c379a0000000000000000000000000000000000000000000000000000000008152600401610635906125b1565b60405180910390fd5b8073ffffffffffffffffffffffffffffffffffffffff1661065d610fc5565b73ffffffffffffffffffffffffffffffffffffffff16148061068c575061068b81610686610fc5565b610df9565b5b6106cb576040517f08c379a00000000000000000000000000000000000000000000000000000000081526004016106c290612643565b60405180910390fd5b6106d58383610fcd565b505050565b60606000600a60008473ffffffffffffffffffffffffffffffffffffffff1673ffffffffffffffffffffffffffffffffffffffff16815260200190815260200160002080548060200260200160405190810160405280929190818152602001828054801561076757602002820191906000526020600020905b815481526020019060010190808311610753575b505050505090506000815167ffffffffffffffff81111561078b5761078a61211e565b5b6040519080825280602002602001820160405280156107be57816020015b60608152602001906001900390816107a95790505b509050600084905060005b835181101561087c578173ffffffffffffffffffffffffffffffffffffffff1661080c8583815181106107ff576107fe612663565b5b602002602001015161094b565b73ffffffffffffffffffffffffffffffffffffffff16036108695761084a84828151811061083d5761083c612663565b5b6020026020010151610c8f565b83828151811061085d5761085c612663565b5b60200260200101819052505b8080610874906126c1565b9150506107c9565b50819350505050919050565b6000600b8260405161089a9190612745565b9081526020016040518091039020549050919050565b6108c16108bb610fc5565b82611086565b610900576040517f08c379a00000000000000000000000000000000000000000000000000000000081526004016108f7906127ce565b60405180910390fd5b61090b83838361111b565b505050565b61092b83838360405180602001604052806000815250610c2d565b505050565b610938611414565b8060089081610947919061299a565b5050565b60008061095783611492565b9050600073ffffffffffffffffffffffffffffffffffffffff168173ffffffffffffffffffffffffffffffffffffffff16036109c8576040517f08c379a00000000000000000000000000000000000000000000000000000000081526004016109bf90612ab8565b60405180910390fd5b80915050919050565b6000806109de60076114cf565b90506109ea60076114dd565b6109f433826114f3565b6109fe8184611511565b600a60003373ffffffffffffffffffffffffffffffffffffffff1673ffffffffffffffffffffffffffffffffffffffff16815260200190815260200160002081908060018154018082558091505060019003906000526020600020016000909190919091505580600b84604051610a759190612745565b90815260200160405180910390208190555080915050919050565b60008073ffffffffffffffffffffffffffffffffffffffff168273ffffffffffffffffffffffffffffffffffffffff1603610b00576040517f08c379a0000000000000000000000000000000000000000000000000000000008152600401610af790612b4a565b60405180910390fd5b600360008373ffffffffffffffffffffffffffffffffffffffff1673ffffffffffffffffffffffffffffffffffffffff168152602001908152602001600020549050919050565b610b4f611414565b610b59600061157e565b565b6000600660009054906101000a900473ffffffffffffffffffffffffffffffffffffffff16905090565b606060018054610b949061250e565b80601f0160208091040260200160405190810160405280929190818152602001828054610bc09061250e565b8015610c0d5780601f10610be257610100808354040283529160200191610c0d565b820191906000526020600020905b815481529060010190602001808311610bf057829003601f168201915b5050505050905090565b610c29610c22610fc5565b8383611644565b5050565b610c3e610c38610fc5565b83611086565b610c7d576040517f08c379a0000000000000000000000000000000000000000000000000000000008152600401610c74906127ce565b60405180910390fd5b610c89848484846117b0565b50505050565b6060610c9a8261180c565b610cd9576040517f08c379a0000000000000000000000000000000000000000000000000000000008152600401610cd090612bdc565b60405180910390fd5b6000600960008481526020019081526020016000208054610cf99061250e565b80601f0160208091040260200160405190810160405280929190818152602001828054610d259061250e565b8015610d725780601f10610d4757610100808354040283529160200191610d72565b820191906000526020600020905b815481529060010190602001808311610d5557829003601f168201915b505050505090506000610d8361184d565b90506000815103610d98578192505050610df4565b600082511115610dcd578082604051602001610db5929190612bfc565b60405160208183030381529060405292505050610df4565b8084604051602001610de0929190612c41565b604051602081830303815290604052925050505b919050565b6000600560008473ffffffffffffffffffffffffffffffffffffffff1673ffffffffffffffffffffffffffffffffffffffff16815260200190815260200160002060008373ffffffffffffffffffffffffffffffffffffffff1673ffffffffffffffffffffffffffffffffffffffff16815260200190815260200160002060009054906101000a900460ff16905092915050565b610e95611414565b600073ffffffffffffffffffffffffffffffffffffffff168173ffffffffffffffffffffffffffffffffffffffff1603610f04576040517f08c379a0000000000000000000000000000000000000000000000000000000008152600401610efb90612cdb565b60405180910390fd5b610f0d8161157e565b50565b60007f01ffc9a7000000000000000000000000000000000000000000000000000000007bffffffffffffffffffffffffffffffffffffffffffffffffffffffff1916827bffffffffffffffffffffffffffffffffffffffffffffffffffffffff1916149050919050565b610f838161180c565b610fc2576040517f08c379a0000000000000000000000000000000000000000000000000000000008152600401610fb990612ab8565b60405180910390fd5b50565b600033905090565b816004600083815260200190815260200160002060006101000a81548173ffffffffffffffffffffffffffffffffffffffff021916908373ffffffffffffffffffffffffffffffffffffffff160217905550808273ffffffffffffffffffffffffffffffffffffffff166110408361094b565b73ffffffffffffffffffffffffffffffffffffffff167f8c5be1e5ebec7d5bd14f71427d1e84f3dd0314c0f7b2291e5b200ac8c7c3b92560405160405180910390a45050565b6000806110928361094b565b90508073ffffffffffffffffffffffffffffffffffffffff168473ffffffffffffffffffffffffffffffffffffffff1614806110d457506110d38185610df9565b5b8061111257508373ffffffffffffffffffffffffffffffffffffffff166110fa8461057d565b73ffffffffffffffffffffffffffffffffffffffff16145b91505092915050565b8273ffffffffffffffffffffffffffffffffffffffff1661113b8261094b565b73ffffffffffffffffffffffffffffffffffffffff1614611191576040517f08c379a000000000000000000000000000000000000000000000000000000000815260040161118890612d6d565b60405180910390fd5b600073ffffffffffffffffffffffffffffffffffffffff168273ffffffffffffffffffffffffffffffffffffffff1603611200576040517f08c379a00000000000000000000000000000000000000000000000000000000081526004016111f790612dff565b60405180910390fd5b61120d83838360016118df565b8273ffffffffffffffffffffffffffffffffffffffff1661122d8261094b565b73ffffffffffffffffffffffffffffffffffffffff1614611283576040517f08c379a000000000000000000000000000000000000000000000000000000000815260040161127a90612d6d565b60405180910390fd5b6004600082815260200190815260200160002060006101000a81549073ffffffffffffffffffffffffffffffffffffffff02191690556001600360008573ffffffffffffffffffffffffffffffffffffffff1673ffffffffffffffffffffffffffffffffffffffff168152602001908152602001600020600082825403925050819055506001600360008473ffffffffffffffffffffffffffffffffffffffff1673ffffffffffffffffffffffffffffffffffffffff16815260200190815260200160002060008282540192505081905550816002600083815260200190815260200160002060006101000a81548173ffffffffffffffffffffffffffffffffffffffff021916908373ffffffffffffffffffffffffffffffffffffffff160217905550808273ffffffffffffffffffffffffffffffffffffffff168473ffffffffffffffffffffffffffffffffffffffff167fddf252ad1be2c89b69c2b068fc378daa952ba7f163c4a11628f55a4df523b3ef60405160405180910390a461140f83838360016118e5565b505050565b61141c610fc5565b73ffffffffffffffffffffffffffffffffffffffff1661143a610b5b565b73ffffffffffffffffffffffffffffffffffffffff1614611490576040517f08c379a000000000000000000000000000000000000000000000000000000000815260040161148790612e6b565b60405180910390fd5b565b60006002600083815260200190815260200160002060009054906101000a900473ffffffffffffffffffffffffffffffffffffffff169050919050565b600081600001549050919050565b6001816000016000828254019250508190555050565b61150d8282604051806020016040528060008152506118eb565b5050565b61151a8261180c565b611559576040517f08c379a000000000000000000000000000000000000000000000000000000000815260040161155090612efd565b60405180910390fd5b80600960008481526020019081526020016000209081611579919061299a565b505050565b6000600660009054906101000a900473ffffffffffffffffffffffffffffffffffffffff16905081600660006101000a81548173ffffffffffffffffffffffffffffffffffffffff021916908373ffffffffffffffffffffffffffffffffffffffff1602179055508173ffffffffffffffffffffffffffffffffffffffff168173ffffffffffffffffffffffffffffffffffffffff167f8be0079c531659141344cd1fd0a4f28419497f9722a3daafe3b4186f6b6457e060405160405180910390a35050565b8173ffffffffffffffffffffffffffffffffffffffff168373ffffffffffffffffffffffffffffffffffffffff16036116b2576040517f08c379a00000000000000000000000000000000000000000000000000000000081526004016116a990612f69565b60405180910390fd5b80600560008573ffffffffffffffffffffffffffffffffffffffff1673ffffffffffffffffffffffffffffffffffffffff16815260200190815260200160002060008473ffffffffffffffffffffffffffffffffffffffff1673ffffffffffffffffffffffffffffffffffffffff16815260200190815260200160002060006101000a81548160ff0219169083151502179055508173ffffffffffffffffffffffffffffffffffffffff168373ffffffffffffffffffffffffffffffffffffffff167f17307eab39ab6107e8899845ad3d59bd9653f200f220920489ca2b5937696c31836040516117a39190611dc1565b60405180910390a3505050565b6117bb84848461111b565b6117c784848484611946565b611806576040517f08c379a00000000000000000000000000000000000000000000000000000000081526004016117fd90612ffb565b60405180910390fd5b50505050565b60008073ffffffffffffffffffffffffffffffffffffffff1661182e83611492565b73ffffffffffffffffffffffffffffffffffffffff1614159050919050565b60606008805461185c9061250e565b80601f01602080910402602001604051908101604052809291908181526020018280546118889061250e565b80156118d55780601f106118aa576101008083540402835291602001916118d5565b820191906000526020600020905b8154815290600101906020018083116118b857829003601f168201915b5050505050905090565b50505050565b50505050565b6118f58383611acd565b6119026000848484611946565b611941576040517f08c379a000000000000000000000000000000000000000000000000000000000815260040161193890612ffb565b60405180910390fd5b505050565b60006119678473ffffffffffffffffffffffffffffffffffffffff16611cea565b15611ac0578373ffffffffffffffffffffffffffffffffffffffff1663150b7a02611990610fc5565b8786866040518563ffffffff1660e01b81526004016119b29493929190613070565b6020604051808303816000875af19250505080156119ee57506040513d601f19601f820116820180604052508101906119eb91906130d1565b60015b611a70573d8060008114611a1e576040519150601f19603f3d011682016040523d82523d6000602084013e611a23565b606091505b506000815103611a68576040517f08c379a0000000000000000000000000000000000000000000000000000000008152600401611a5f90612ffb565b60405180910390fd5b805181602001fd5b63150b7a0260e01b7bffffffffffffffffffffffffffffffffffffffffffffffffffffffff1916817bffffffffffffffffffffffffffffffffffffffffffffffffffffffff191614915050611ac5565b600190505b949350505050565b600073ffffffffffffffffffffffffffffffffffffffff168273ffffffffffffffffffffffffffffffffffffffff1603611b3c576040517f08c379a0000000000000000000000000000000000000000000000000000000008152600401611b339061314a565b60405180910390fd5b611b458161180c565b15611b85576040517f08c379a0000000000000000000000000000000000000000000000000000000008152600401611b7c906131b6565b60405180910390fd5b611b936000838360016118df565b611b9c8161180c565b15611bdc576040517f08c379a0000000000000000000000000000000000000000000000000000000008152600401611bd3906131b6565b60405180910390fd5b6001600360008473ffffffffffffffffffffffffffffffffffffffff1673ffffffffffffffffffffffffffffffffffffffff16815260200190815260200160002060008282540192505081905550816002600083815260200190815260200160002060006101000a81548173ffffffffffffffffffffffffffffffffffffffff021916908373ffffffffffffffffffffffffffffffffffffffff160217905550808273ffffffffffffffffffffffffffffffffffffffff16600073ffffffffffffffffffffffffffffffffffffffff167fddf252ad1be2c89b69c2b068fc378daa952ba7f163c4a11628f55a4df523b3ef60405160405180910390a4611ce66000838360016118e5565b5050565b6000808273ffffffffffffffffffffffffffffffffffffffff163b119050919050565b6000604051905090565b600080fd5b600080fd5b60007fffffffff0000000000000000000000000000000000000000000000000000000082169050919050565b611d5681611d21565b8114611d6157600080fd5b50565b600081359050611d7381611d4d565b92915050565b600060208284031215611d8f57611d8e611d17565b5b6000611d9d84828501611d64565b91505092915050565b60008115159050919050565b611dbb81611da6565b82525050565b6000602082019050611dd66000830184611db2565b92915050565b600081519050919050565b600082825260208201905092915050565b60005b83811015611e16578082015181840152602081019050611dfb565b60008484015250505050565b6000601f19601f8301169050919050565b6000611e3e82611ddc565b611e488185611de7565b9350611e58818560208601611df8565b611e6181611e22565b840191505092915050565b60006020820190508181036000830152611e868184611e33565b905092915050565b6000819050919050565b611ea181611e8e565b8114611eac57600080fd5b50565b600081359050611ebe81611e98565b92915050565b600060208284031215611eda57611ed9611d17565b5b6000611ee884828501611eaf565b91505092915050565b600073ffffffffffffffffffffffffffffffffffffffff82169050919050565b6000611f1c82611ef1565b9050919050565b611f2c81611f11565b82525050565b6000602082019050611f476000830184611f23565b92915050565b611f5681611f11565b8114611f6157600080fd5b50565b600081359050611f7381611f4d565b92915050565b60008060408385031215611f9057611f8f611d17565b5b6000611f9e85828601611f64565b9250506020611faf85828601611eaf565b9150509250929050565b600060208284031215611fcf57611fce611d17565b5b6000611fdd84828501611f64565b91505092915050565b600081519050919050565b600082825260208201905092915050565b6000819050602082019050919050565b600082825260208201905092915050565b600061202e82611ddc565b6120388185612012565b9350612048818560208601611df8565b61205181611e22565b840191505092915050565b60006120688383612023565b905092915050565b6000602082019050919050565b600061208882611fe6565b6120928185611ff1565b9350836020820285016120a485612002565b8060005b858110156120e057848403895281516120c1858261205c565b94506120cc83612070565b925060208a019950506001810190506120a8565b50829750879550505050505092915050565b6000602082019050818103600083015261210c818461207d565b905092915050565b600080fd5b600080fd5b7f4e487b7100000000000000000000000000000000000000000000000000000000600052604160045260246000fd5b61215682611e22565b810181811067ffffffffffffffff821117156121755761217461211e565b5b80604052505050565b6000612188611d0d565b9050612194828261214d565b919050565b600067ffffffffffffffff8211156121b4576121b361211e565b5b6121bd82611e22565b9050602081019050919050565b82818337600083830152505050565b60006121ec6121e784612199565b61217e565b90508281526020810184848401111561220857612207612119565b5b6122138482856121ca565b509392505050565b600082601f8301126122305761222f612114565b5b81356122408482602086016121d9565b91505092915050565b60006020828403121561225f5761225e611d17565b5b600082013567ffffffffffffffff81111561227d5761227c611d1c565b5b6122898482850161221b565b91505092915050565b61229b81611e8e565b82525050565b60006020820190506122b66000830184612292565b92915050565b6000806000606084860312156122d5576122d4611d17565b5b60006122e386828701611f64565b93505060206122f486828701611f64565b925050604061230586828701611eaf565b9150509250925092565b61231881611da6565b811461232357600080fd5b50565b6000813590506123358161230f565b92915050565b6000806040838503121561235257612351611d17565b5b600061236085828601611f64565b925050602061237185828601612326565b9150509250929050565b600067ffffffffffffffff8211156123965761239561211e565b5b61239f82611e22565b9050602081019050919050565b60006123bf6123ba8461237b565b61217e565b9050828152602081018484840111156123db576123da612119565b5b6123e68482856121ca565b509392505050565b600082601f83011261240357612402612114565b5b81356124138482602086016123ac565b91505092915050565b6000806000806080858703121561243657612435611d17565b5b600061244487828801611f64565b945050602061245587828801611f64565b935050604061246687828801611eaf565b925050606085013567ffffffffffffffff81111561248757612486611d1c565b5b612493878288016123ee565b91505092959194509250565b600080604083850312156124b6576124b5611d17565b5b60006124c485828601611f64565b92505060206124d585828601611f64565b9150509250929050565b7f4e487b7100000000000000000000000000000000000000000000000000000000600052602260045260246000fd5b6000600282049050600182168061252657607f821691505b602082108103612539576125386124df565b5b50919050565b7f4552433732313a20617070726f76616c20746f2063757272656e74206f776e6560008201527f7200000000000000000000000000000000000000000000000000000000000000602082015250565b600061259b602183611de7565b91506125a68261253f565b604082019050919050565b600060208201905081810360008301526125ca8161258e565b9050919050565b7f4552433732313a20617070726f76652063616c6c6572206973206e6f7420746f60008201527f6b656e206f776e6572206f7220617070726f76656420666f7220616c6c000000602082015250565b600061262d603d83611de7565b9150612638826125d1565b604082019050919050565b6000602082019050818103600083015261265c81612620565b9050919050565b7f4e487b7100000000000000000000000000000000000000000000000000000000600052603260045260246000fd5b7f4e487b7100000000000000000000000000000000000000000000000000000000600052601160045260246000fd5b60006126cc82611e8e565b91507fffffffffffffffffffffffffffffffffffffffffffffffffffffffffffffffff82036126fe576126fd612692565b5b600182019050919050565b600081905092915050565b600061271f82611ddc565b6127298185612709565b9350612739818560208601611df8565b80840191505092915050565b60006127518284612714565b915081905092915050565b7f4552433732313a2063616c6c6572206973206e6f7420746f6b656e206f776e6560008201527f72206f7220617070726f76656400000000000000000000000000000000000000602082015250565b60006127b8602d83611de7565b91506127c38261275c565b604082019050919050565b600060208201905081810360008301526127e7816127ab565b9050919050565b60008190508160005260206000209050919050565b60006020601f8301049050919050565b600082821b905092915050565b6000600883026128507fffffffffffffffffffffffffffffffffffffffffffffffffffffffffffffffff82612813565b61285a8683612813565b95508019841693508086168417925050509392505050565b6000819050919050565b600061289761289261288d84611e8e565b612872565b611e8e565b9050919050565b6000819050919050565b6128b18361287c565b6128c56128bd8261289e565b848454612820565b825550505050565b600090565b6128da6128cd565b6128e58184846128a8565b505050565b5b81811015612909576128fe6000826128d2565b6001810190506128eb565b5050565b601f82111561294e5761291f816127ee565b61292884612803565b81016020851015612937578190505b61294b61294385612803565b8301826128ea565b50505b505050565b600082821c905092915050565b600061297160001984600802612953565b1980831691505092915050565b600061298a8383612960565b9150826002028217905092915050565b6129a382611ddc565b67ffffffffffffffff8111156129bc576129bb61211e565b5b6129c6825461250e565b6129d182828561290d565b600060209050601f831160018114612a0457600084156129f2578287015190505b6129fc858261297e565b865550612a64565b601f198416612a12866127ee565b60005b82811015612a3a57848901518255600182019150602085019450602081019050612a15565b86831015612a575784890151612a53601f891682612960565b8355505b6001600288020188555050505b505050505050565b7f4552433732313a20696e76616c696420746f6b656e2049440000000000000000600082015250565b6000612aa2601883611de7565b9150612aad82612a6c565b602082019050919050565b60006020820190508181036000830152612ad181612a95565b9050919050565b7f4552433732313a2061646472657373207a65726f206973206e6f74206120766160008201527f6c6964206f776e65720000000000000000000000000000000000000000000000602082015250565b6000612b34602983611de7565b9150612b3f82612ad8565b604082019050919050565b60006020820190508181036000830152612b6381612b27565b9050919050565b7f4552433732314d657461646174613a2055524920717565727920666f72206e6f60008201527f6e6578697374656e7420746f6b656e0000000000000000000000000000000000602082015250565b6000612bc6602f83611de7565b9150612bd182612b6a565b604082019050919050565b60006020820190508181036000830152612bf581612bb9565b9050919050565b6000612c088285612714565b9150612c148284612714565b91508190509392505050565b6000819050919050565b612c3b612c3682611e8e565b612c20565b82525050565b6000612c4d8285612714565b9150612c598284612c2a565b6020820191508190509392505050565b7f4f776e61626c653a206e6577206f776e657220697320746865207a65726f206160008201527f6464726573730000000000000000000000000000000000000000000000000000602082015250565b6000612cc5602683611de7565b9150612cd082612c69565b604082019050919050565b60006020820190508181036000830152612cf481612cb8565b9050919050565b7f4552433732313a207472616e736665722066726f6d20696e636f72726563742060008201527f6f776e6572000000000000000000000000000000000000000000000000000000602082015250565b6000612d57602583611de7565b9150612d6282612cfb565b604082019050919050565b60006020820190508181036000830152612d8681612d4a565b9050919050565b7f4552433732313a207472616e7366657220746f20746865207a65726f2061646460008201527f7265737300000000000000000000000000000000000000000000000000000000602082015250565b6000612de9602483611de7565b9150612df482612d8d565b604082019050919050565b60006020820190508181036000830152612e1881612ddc565b9050919050565b7f4f776e61626c653a2063616c6c6572206973206e6f7420746865206f776e6572600082015250565b6000612e55602083611de7565b9150612e6082612e1f565b602082019050919050565b60006020820190508181036000830152612e8481612e48565b9050919050565b7f4552433732314d657461646174613a2055524920736574206f66206e6f6e657860008201527f697374656e7420746f6b656e0000000000000000000000000000000000000000602082015250565b6000612ee7602c83611de7565b9150612ef282612e8b565b604082019050919050565b60006020820190508181036000830152612f1681612eda565b9050919050565b7f4552433732313a20617070726f766520746f2063616c6c657200000000000000600082015250565b6000612f53601983611de7565b9150612f5e82612f1d565b602082019050919050565b60006020820190508181036000830152612f8281612f46565b9050919050565b7f4552433732313a207472616e7366657220746f206e6f6e20455243373231526560008201527f63656976657220696d706c656d656e7465720000000000000000000000000000602082015250565b6000612fe5603283611de7565b9150612ff082612f89565b604082019050919050565b6000602082019050818103600083015261301481612fd8565b9050919050565b600081519050919050565b600082825260208201905092915050565b60006130428261301b565b61304c8185613026565b935061305c818560208601611df8565b61306581611e22565b840191505092915050565b60006080820190506130856000830187611f23565b6130926020830186611f23565b61309f6040830185612292565b81810360608301526130b18184613037565b905095945050505050565b6000815190506130cb81611d4d565b92915050565b6000602082840312156130e7576130e6611d17565b5b60006130f5848285016130bc565b91505092915050565b7f4552433732313a206d696e7420746f20746865207a65726f2061646472657373600082015250565b6000613134602083611de7565b915061313f826130fe565b602082019050919050565b6000602082019050818103600083015261316381613127565b9050919050565b7f4552433732313a20746f6b656e20616c7265616479206d696e74656400000000600082015250565b60006131a0601c83611de7565b91506131ab8261316a565b602082019050919050565b600060208201905081810360008301526131cf81613193565b905091905056fea26469706673582212201180244e0889f71f8cc1677c2f658c2b065e82334aa52ed497d0a0cdf64dfa2964736f6c63430008130033",
	"linkReferences": {},
	"deployedLinkReferences": {}
}