{
	"_format": "hh-sol-artifact-1",
	"contractName": "ERC721Contract",
	"sourceName": "contracts/ERC721Contract.sol",
	"abi": [
		{
			"inputs": [],
			"stateMutability": "nonpayable",
			"type": "constructor"
		},
		{
			"anonymous": false,
			"inputs": [
				{
					"indexed": true,
					"internalType": "address",
					"name": "owner",
					"type": "address"
				},
				{
					"indexed": true,
					"internalType": "address",
					"name": "approved",
					"type": "address"
				},
				{
					"indexed": true,
					"internalType": "uint256",
					"name": "tokenId",
					"type": "uint256"
				}
			],
			"name": "Approval",
			"type": "event"
		},
		{
			"anonymous": false,
			"inputs": [
				{
					"indexed": true,
					"internalType": "address",
					"name": "owner",
					"type": "address"
				},
				{
					"indexed": true,
					"internalType": "address",
					"name": "operator",
					"type": "address"
				},
				{
					"indexed": false,
					"internalType": "bool",
					"name": "approved",
					"type": "bool"
				}
			],
			"name": "ApprovalForAll",
			"type": "event"
		},
		{
			"anonymous": false,
			"inputs": [
				{
					"indexed": true,
					"internalType": "address",
					"name": "previousOwner",
					"type": "address"
				},
				{
					"indexed": true,
					"internalType": "address",
					"name": "newOwner",
					"type": "address"
				}
			],
			"name": "OwnershipTransferred",
			"type": "event"
		},
		{
			"anonymous": false,
			"inputs": [
				{
					"indexed": true,
					"internalType": "address",
					"name": "from",
					"type": "address"
				},
				{
					"indexed": true,
					"internalType": "address",
					"name": "to",
					"type": "address"
				},
				{
					"indexed": true,
					"internalType": "uint256",
					"name": "tokenId",
					"type": "uint256"
				}
			],
			"name": "Transfer",
			"type": "event"
		},
		{
			"inputs": [
				{
					"internalType": "address",
					"name": "to",
					"type": "address"
				},
				{
					"internalType": "uint256",
					"name": "tokenId",
					"type": "uint256"
				}
			],
			"name": "approve",
			"outputs": [],
			"stateMutability": "nonpayable",
			"type": "function"
		},
		{
			"inputs": [
				{
					"internalType": "address",
					"name": "owner",
					"type": "address"
				}
			],
			"name": "balanceOf",
			"outputs": [
				{
					"internalType": "uint256",
					"name": "",
					"type": "uint256"
				}
			],
			"stateMutability": "view",
			"type": "function"
		},
		{
			"inputs": [
				{
					"internalType": "uint256",
					"name": "tokenId",
					"type": "uint256"
				}
			],
			"name": "getApproved",
			"outputs": [
				{
					"internalType": "address",
					"name": "",
					"type": "address"
				}
			],
			"stateMutability": "view",
			"type": "function"
		},
		{
			"inputs": [
				{
					"internalType": "address",
					"name": "owner",
					"type": "address"
				}
			],
			"name": "getOwnedNFTs",
			"outputs": [
				{
					"internalType": "string[]",
					"name": "",
					"type": "string[]"
				}
			],
			"stateMutability": "view",
			"type": "function"
		},
		{
			"inputs": [
				{
					"internalType": "string",
					"name": "_tokenURI",
					"type": "string"
				}
			],
			"name": "getTokenId",
			"outputs": [
				{
					"internalType": "uint256",
					"name": "",
					"type": "uint256"
				}
			],
			"stateMutability": "view",
			"type": "function"
		},
		{
			"inputs": [
				{
					"internalType": "address",
					"name": "owner",
					"type": "address"
				},
				{
					"internalType": "address",
					"name": "operator",
					"type": "address"
				}
			],
			"name": "isApprovedForAll",
			"outputs": [
				{
					"internalType": "bool",
					"name": "",
					"type": "bool"
				}
			],
			"stateMutability": "view",
			"type": "function"
		},
		{
			"inputs": [],
			"name": "name",
			"outputs": [
				{
					"internalType": "string",
					"name": "",
					"type": "string"
				}
			],
			"stateMutability": "view",
			"type": "function"
		},
		{
			"inputs": [],
			"name": "owner",
			"outputs": [
				{
					"internalType": "address",
					"name": "",
					"type": "address"
				}
			],
			"stateMutability": "view",
			"type": "function"
		},
		{
			"inputs": [
				{
					"internalType": "uint256",
					"name": "tokenId",
					"type": "uint256"
				}
			],
			"name": "ownerOf",
			"outputs": [
				{
					"internalType": "address",
					"name": "",
					"type": "address"
				}
			],
			"stateMutability": "view",
			"type": "function"
		},
		{
			"inputs": [],
			"name": "renounceOwnership",
			"outputs": [],
			"stateMutability": "nonpayable",
			"type": "function"
		},
		{
			"inputs": [
				{
					"internalType": "string",
					"name": "_tokenURI",
					"type": "string"
				}
			],
			"name": "safeMint",
			"outputs": [
				{
					"internalType": "uint256",
					"name": "",
					"type": "uint256"
				}
			],
			"stateMutability": "nonpayable",
			"type": "function"
		},
		{
			"inputs": [
				{
					"internalType": "address",
					"name": "from",
					"type": "address"
				},
				{
					"internalType": "address",
					"name": "to",
					"type": "address"
				},
				{
					"internalType": "uint256",
					"name": "tokenId",
					"type": "uint256"
				}
			],
			"name": "safeTransferFrom",
			"outputs": [],
			"stateMutability": "nonpayable",
			"type": "function"
		},
		{
			"inputs": [
				{
					"internalType": "address",
					"name": "from",
					"type": "address"
				},
				{
					"internalType": "address",
					"name": "to",
					"type": "address"
				},
				{
					"internalType": "uint256",
					"name": "tokenId",
					"type": "uint256"
				},
				{
					"internalType": "bytes",
					"name": "data",
					"type": "bytes"
				}
			],
			"name": "safeTransferFrom",
			"outputs": [],
			"stateMutability": "nonpayable",
			"type": "function"
		},
		{
			"inputs": [
				{
					"internalType": "address",
					"name": "operator",
					"type": "address"
				},
				{
					"internalType": "bool",
					"name": "approved",
					"type": "bool"
				}
			],
			"name": "setApprovalForAll",
			"outputs": [],
			"stateMutability": "nonpayable",
			"type": "function"
		},
		{
			"inputs": [
				{
					"internalType": "string",
					"name": "baseURI_",
					"type": "string"
				}
			],
			"name": "setBaseURI",
			"outputs": [],
			"stateMutability": "nonpayable",
			"type": "function"
		},
		{
			"inputs": [
				{
					"internalType": "bytes4",
					"name": "interfaceId",
					"type": "bytes4"
				}
			],
			"name": "supportsInterface",
			"outputs": [
				{
					"internalType": "bool",
					"name": "",
					"type": "bool"
				}
			],
			"stateMutability": "view",
			"type": "function"
		},
		{
			"inputs": [],
			"name": "symbol",
			"outputs": [
				{
					"internalType": "string",
					"name": "",
					"type": "string"
				}
			],
			"stateMutability": "view",
			"type": "function"
		},
		{
			"inputs": [
				{
					"internalType": "uint256",
					"name": "tokenId",
					"type": "uint256"
				}
			],
			"name": "tokenURI",
			"outputs": [
				{
					"internalType": "string",
					"name": "",
					"type": "string"
				}
			],
			"stateMutability": "view",
			"type": "function"
		},
		{
			"inputs": [
				{
					"internalType": "address",
					"name": "from",
					"type": "address"
				},
				{
					"internalType": "address",
					"name": "to",
					"type": "address"
				},
				{
					"internalType": "uint256",
					"name": "tokenId",
					"type": "uint256"
				}
			],
			"name": "transferFrom",
			"outputs": [],
			"stateMutability": "nonpayable",
			"type": "function"
		},
		{
			"inputs": [
				{
					"internalType": "address",
					"name": "newOwner",
					"type": "address"
				}
			],
			"name": "transferOwnership",
			"outputs": [],
			"stateMutability": "nonpayable",
			"type": "function"
		}
	],
	"bytecode": "0x60806040523480156200001157600080fd5b506040518060400160405280600781526020017f4d79546f6b656e000000000000000000000000000000000000000000000000008152506040518060400160405280600381526020017f4d544b0000000000000000000000000000000000000000000000000000000000815250816000908051906020019062000096929190620001a6565b508060019080519060200190620000af929190620001a6565b505050620000d2620000c6620000d860201b60201c565b620000e060201b60201c565b620002bb565b600033905090565b6000600660009054906101000a900473ffffffffffffffffffffffffffffffffffffffff16905081600660006101000a81548173ffffffffffffffffffffffffffffffffffffffff021916908373ffffffffffffffffffffffffffffffffffffffff1602179055508173ffffffffffffffffffffffffffffffffffffffff168173ffffffffffffffffffffffffffffffffffffffff167f8be0079c531659141344cd1fd0a4f28419497f9722a3daafe3b4186f6b6457e060405160405180910390a35050565b828054620001b49062000285565b90600052602060002090601f016020900481019282620001d8576000855562000224565b82601f10620001f357805160ff191683800117855562000224565b8280016001018555821562000224579182015b828111156200022357825182559160200191906001019062000206565b5b50905062000233919062000237565b5090565b5b808211156200025257600081600090555060010162000238565b5090565b7f4e487b7100000000000000000000000000000000000000000000000000000000600052602260045260246000fd5b600060028204905060018216806200029e57607f821691505b60208210811415620002b557620002b462000256565b5b50919050565b61306380620002cb6000396000f3fe608060405234801561001057600080fd5b506004361061012c5760003560e01c8063695850fb116100ad578063a22cb46511610071578063a22cb46514610355578063b88d4fde14610371578063c87b56dd1461038d578063e985e9c5146103bd578063f2fde38b146103ed5761012c565b8063695850fb146102af57806370a08231146102df578063715018a61461030f5780638da5cb5b1461031957806395d89b41146103375761012c565b80631e7663bc116100f45780631e7663bc146101fb57806323b872dd1461022b57806342842e0e1461024757806355f804b3146102635780636352211e1461027f5761012c565b806301ffc9a71461013157806306fdde0314610161578063081812fc1461017f578063095ea7b3146101af57806318148f1b146101cb575b600080fd5b61014b60048036038101906101469190611e43565b610409565b6040516101589190611e8b565b60405180910390f35b6101696104eb565b6040516101769190611f3f565b60405180910390f35b61019960048036038101906101949190611f97565b61057d565b6040516101a69190612005565b60405180910390f35b6101c960048036038101906101c4919061204c565b6105c3565b005b6101e560048036038101906101e0919061208c565b6106db565b6040516101f291906121c5565b60405180910390f35b6102156004803603810190610210919061231c565b61088a565b6040516102229190612374565b60405180910390f35b6102456004803603810190610240919061238f565b6108b2565b005b610261600480360381019061025c919061238f565b610912565b005b61027d6004803603810190610278919061231c565b610932565b005b61029960048036038101906102949190611f97565b610954565b6040516102a69190612005565b60405180910390f35b6102c960048036038101906102c4919061231c565b6109db565b6040516102d69190612374565b60405180910390f35b6102f960048036038101906102f4919061208c565b610a9a565b6040516103069190612374565b60405180910390f35b610317610b52565b005b610321610b66565b60405161032e9190612005565b60405180910390f35b61033f610b90565b60405161034c9190611f3f565b60405180910390f35b61036f600480360381019061036a919061240e565b610c22565b005b61038b600480360381019061038691906124ef565b610c38565b005b6103a760048036038101906103a29190611f97565b610c9a565b6040516103b49190611f3f565b60405180910390f35b6103d760048036038101906103d29190612572565b610e05565b6040516103e49190611e8b565b60405180910390f35b6104076004803603810190610402919061208c565b610e99565b005b60007f80ac58cd000000000000000000000000000000000000000000000000000000007bffffffffffffffffffffffffffffffffffffffffffffffffffffffff1916827bffffffffffffffffffffffffffffffffffffffffffffffffffffffff191614806104d457507f5b5e139f000000000000000000000000000000000000000000000000000000007bffffffffffffffffffffffffffffffffffffffffffffffffffffffff1916827bffffffffffffffffffffffffffffffffffffffffffffffffffffffff1916145b806104e457506104e382610f1d565b5b9050919050565b6060600080546104fa906125e1565b80601f0160208091040260200160405190810160405280929190818152602001828054610526906125e1565b80156105735780601f1061054857610100808354040283529160200191610573565b820191906000526020600020905b81548152906001019060200180831161055657829003601f168201915b5050505050905090565b600061058882610f87565b6004600083815260200190815260200160002060009054906101000a900473ffffffffffffffffffffffffffffffffffffffff169050919050565b60006105ce82610954565b90508073ffffffffffffffffffffffffffffffffffffffff168373ffffffffffffffffffffffffffffffffffffffff16141561063f576040517f08c379a000000000000000000000000000000000000000000000000000000000815260040161063690612685565b60405180910390fd5b8073ffffffffffffffffffffffffffffffffffffffff1661065e610fd2565b73ffffffffffffffffffffffffffffffffffffffff16148061068d575061068c81610687610fd2565b610e05565b5b6106cc576040517f08c379a00000000000000000000000000000000000000000000000000000000081526004016106c390612717565b60405180910390fd5b6106d68383610fda565b505050565b60606000600a60008473ffffffffffffffffffffffffffffffffffffffff1673ffffffffffffffffffffffffffffffffffffffff16815260200190815260200160002080548060200260200160405190810160405280929190818152602001828054801561076857602002820191906000526020600020905b815481526020019060010190808311610754575b505050505090506000815167ffffffffffffffff81111561078c5761078b6121f1565b5b6040519080825280602002602001820160405280156107bf57816020015b60608152602001906001900390816107aa5790505b509050600084905060005b835181101561087e578173ffffffffffffffffffffffffffffffffffffffff1661080d858381518110610800576107ff612737565b5b6020026020010151610954565b73ffffffffffffffffffffffffffffffffffffffff16141561086b5761084c84828151811061083f5761083e612737565b5b6020026020010151610c9a565b83828151811061085f5761085e612737565b5b60200260200101819052505b808061087690612795565b9150506107ca565b50819350505050919050565b6000600b8260405161089c919061281a565b9081526020016040518091039020549050919050565b6108c36108bd610fd2565b82611093565b610902576040517f08c379a00000000000000000000000000000000000000000000000000000000081526004016108f9906128a3565b60405180910390fd5b61090d838383611128565b505050565b61092d83838360405180602001604052806000815250610c38565b505050565b61093a611422565b8060089080519060200190610950929190611d34565b5050565b600080610960836114a0565b9050600073ffffffffffffffffffffffffffffffffffffffff168173ffffffffffffffffffffffffffffffffffffffff1614156109d2576040517f08c379a00000000000000000000000000000000000000000000000000000000081526004016109c99061290f565b60405180910390fd5b80915050919050565b6000806109e860076114dd565b90506109f460076114eb565b6109fe3382611501565b610a08818461151f565b600a60003373ffffffffffffffffffffffffffffffffffffffff1673ffffffffffffffffffffffffffffffffffffffff16815260200190815260200160002081908060018154018082558091505060019003906000526020600020016000909190919091505580600b84604051610a7f919061281a565b90815260200160405180910390208190555080915050919050565b60008073ffffffffffffffffffffffffffffffffffffffff168273ffffffffffffffffffffffffffffffffffffffff161415610b0b576040517f08c379a0000000000000000000000000000000000000000000000000000000008152600401610b02906129a1565b60405180910390fd5b600360008373ffffffffffffffffffffffffffffffffffffffff1673ffffffffffffffffffffffffffffffffffffffff168152602001908152602001600020549050919050565b610b5a611422565b610b646000611593565b565b6000600660009054906101000a900473ffffffffffffffffffffffffffffffffffffffff16905090565b606060018054610b9f906125e1565b80601f0160208091040260200160405190810160405280929190818152602001828054610bcb906125e1565b8015610c185780601f10610bed57610100808354040283529160200191610c18565b820191906000526020600020905b815481529060010190602001808311610bfb57829003601f168201915b5050505050905090565b610c34610c2d610fd2565b8383611659565b5050565b610c49610c43610fd2565b83611093565b610c88576040517f08c379a0000000000000000000000000000000000000000000000000000000008152600401610c7f906128a3565b60405180910390fd5b610c94848484846117c6565b50505050565b6060610ca582611822565b610ce4576040517f08c379a0000000000000000000000000000000000000000000000000000000008152600401610cdb90612a33565b60405180910390fd5b6000600960008481526020019081526020016000208054610d04906125e1565b80601f0160208091040260200160405190810160405280929190818152602001828054610d30906125e1565b8015610d7d5780601f10610d5257610100808354040283529160200191610d7d565b820191906000526020600020905b815481529060010190602001808311610d6057829003601f168201915b505050505090506000610d8e611863565b9050600081511415610da4578192505050610e00565b600082511115610dd9578082604051602001610dc1929190612a53565b60405160208183030381529060405292505050610e00565b8084604051602001610dec929190612a98565b604051602081830303815290604052925050505b919050565b6000600560008473ffffffffffffffffffffffffffffffffffffffff1673ffffffffffffffffffffffffffffffffffffffff16815260200190815260200160002060008373ffffffffffffffffffffffffffffffffffffffff1673ffffffffffffffffffffffffffffffffffffffff16815260200190815260200160002060009054906101000a900460ff16905092915050565b610ea1611422565b600073ffffffffffffffffffffffffffffffffffffffff168173ffffffffffffffffffffffffffffffffffffffff161415610f11576040517f08c379a0000000000000000000000000000000000000000000000000000000008152600401610f0890612b32565b60405180910390fd5b610f1a81611593565b50565b60007f01ffc9a7000000000000000000000000000000000000000000000000000000007bffffffffffffffffffffffffffffffffffffffffffffffffffffffff1916827bffffffffffffffffffffffffffffffffffffffffffffffffffffffff1916149050919050565b610f9081611822565b610fcf576040517f08c379a0000000000000000000000000000000000000000000000000000000008152600401610fc69061290f565b60405180910390fd5b50565b600033905090565b816004600083815260200190815260200160002060006101000a81548173ffffffffffffffffffffffffffffffffffffffff021916908373ffffffffffffffffffffffffffffffffffffffff160217905550808273ffffffffffffffffffffffffffffffffffffffff1661104d83610954565b73ffffffffffffffffffffffffffffffffffffffff167f8c5be1e5ebec7d5bd14f71427d1e84f3dd0314c0f7b2291e5b200ac8c7c3b92560405160405180910390a45050565b60008061109f83610954565b90508073ffffffffffffffffffffffffffffffffffffffff168473ffffffffffffffffffffffffffffffffffffffff1614806110e157506110e08185610e05565b5b8061111f57508373ffffffffffffffffffffffffffffffffffffffff166111078461057d565b73ffffffffffffffffffffffffffffffffffffffff16145b91505092915050565b8273ffffffffffffffffffffffffffffffffffffffff1661114882610954565b73ffffffffffffffffffffffffffffffffffffffff161461119e576040517f08c379a000000000000000000000000000000000000000000000000000000000815260040161119590612bc4565b60405180910390fd5b600073ffffffffffffffffffffffffffffffffffffffff168273ffffffffffffffffffffffffffffffffffffffff16141561120e576040517f08c379a000000000000000000000000000000000000000000000000000000000815260040161120590612c56565b60405180910390fd5b61121b83838360016118f5565b8273ffffffffffffffffffffffffffffffffffffffff1661123b82610954565b73ffffffffffffffffffffffffffffffffffffffff1614611291576040517f08c379a000000000000000000000000000000000000000000000000000000000815260040161128890612bc4565b60405180910390fd5b6004600082815260200190815260200160002060006101000a81549073ffffffffffffffffffffffffffffffffffffffff02191690556001600360008573ffffffffffffffffffffffffffffffffffffffff1673ffffffffffffffffffffffffffffffffffffffff168152602001908152602001600020600082825403925050819055506001600360008473ffffffffffffffffffffffffffffffffffffffff1673ffffffffffffffffffffffffffffffffffffffff16815260200190815260200160002060008282540192505081905550816002600083815260200190815260200160002060006101000a81548173ffffffffffffffffffffffffffffffffffffffff021916908373ffffffffffffffffffffffffffffffffffffffff160217905550808273ffffffffffffffffffffffffffffffffffffffff168473ffffffffffffffffffffffffffffffffffffffff167fddf252ad1be2c89b69c2b068fc378daa952ba7f163c4a11628f55a4df523b3ef60405160405180910390a461141d83838360016118fb565b505050565b61142a610fd2565b73ffffffffffffffffffffffffffffffffffffffff16611448610b66565b73ffffffffffffffffffffffffffffffffffffffff161461149e576040517f08c379a000000000000000000000000000000000000000000000000000000000815260040161149590612cc2565b60405180910390fd5b565b60006002600083815260200190815260200160002060009054906101000a900473ffffffffffffffffffffffffffffffffffffffff169050919050565b600081600001549050919050565b6001816000016000828254019250508190555050565b61151b828260405180602001604052806000815250611901565b5050565b61152882611822565b611567576040517f08c379a000000000000000000000000000000000000000000000000000000000815260040161155e90612d54565b60405180910390fd5b8060096000848152602001908152602001600020908051906020019061158e929190611d34565b505050565b6000600660009054906101000a900473ffffffffffffffffffffffffffffffffffffffff16905081600660006101000a81548173ffffffffffffffffffffffffffffffffffffffff021916908373ffffffffffffffffffffffffffffffffffffffff1602179055508173ffffffffffffffffffffffffffffffffffffffff168173ffffffffffffffffffffffffffffffffffffffff167f8be0079c531659141344cd1fd0a4f28419497f9722a3daafe3b4186f6b6457e060405160405180910390a35050565b8173ffffffffffffffffffffffffffffffffffffffff168373ffffffffffffffffffffffffffffffffffffffff1614156116c8576040517f08c379a00000000000000000000000000000000000000000000000000000000081526004016116bf90612dc0565b60405180910390fd5b80600560008573ffffffffffffffffffffffffffffffffffffffff1673ffffffffffffffffffffffffffffffffffffffff16815260200190815260200160002060008473ffffffffffffffffffffffffffffffffffffffff1673ffffffffffffffffffffffffffffffffffffffff16815260200190815260200160002060006101000a81548160ff0219169083151502179055508173ffffffffffffffffffffffffffffffffffffffff168373ffffffffffffffffffffffffffffffffffffffff167f17307eab39ab6107e8899845ad3d59bd9653f200f220920489ca2b5937696c31836040516117b99190611e8b565b60405180910390a3505050565b6117d1848484611128565b6117dd8484848461195c565b61181c576040517f08c379a000000000000000000000000000000000000000000000000000000000815260040161181390612e52565b60405180910390fd5b50505050565b60008073ffffffffffffffffffffffffffffffffffffffff16611844836114a0565b73ffffffffffffffffffffffffffffffffffffffff1614159050919050565b606060088054611872906125e1565b80601f016020809104026020016040519081016040528092919081815260200182805461189e906125e1565b80156118eb5780601f106118c0576101008083540402835291602001916118eb565b820191906000526020600020905b8154815290600101906020018083116118ce57829003601f168201915b5050505050905090565b50505050565b50505050565b61190b8383611af3565b611918600084848461195c565b611957576040517f08c379a000000000000000000000000000000000000000000000000000000000815260040161194e90612e52565b60405180910390fd5b505050565b600061197d8473ffffffffffffffffffffffffffffffffffffffff16611d11565b15611ae6578373ffffffffffffffffffffffffffffffffffffffff1663150b7a026119a6610fd2565b8786866040518563ffffffff1660e01b81526004016119c89493929190612ec7565b602060405180830381600087803b1580156119e257600080fd5b505af1925050508015611a1357506040513d601f19601f82011682018060405250810190611a109190612f28565b60015b611a96573d8060008114611a43576040519150601f19603f3d011682016040523d82523d6000602084013e611a48565b606091505b50600081511415611a8e576040517f08c379a0000000000000000000000000000000000000000000000000000000008152600401611a8590612e52565b60405180910390fd5b805181602001fd5b63150b7a0260e01b7bffffffffffffffffffffffffffffffffffffffffffffffffffffffff1916817bffffffffffffffffffffffffffffffffffffffffffffffffffffffff191614915050611aeb565b600190505b949350505050565b600073ffffffffffffffffffffffffffffffffffffffff168273ffffffffffffffffffffffffffffffffffffffff161415611b63576040517f08c379a0000000000000000000000000000000000000000000000000000000008152600401611b5a90612fa1565b60405180910390fd5b611b6c81611822565b15611bac576040517f08c379a0000000000000000000000000000000000000000000000000000000008152600401611ba39061300d565b60405180910390fd5b611bba6000838360016118f5565b611bc381611822565b15611c03576040517f08c379a0000000000000000000000000000000000000000000000000000000008152600401611bfa9061300d565b60405180910390fd5b6001600360008473ffffffffffffffffffffffffffffffffffffffff1673ffffffffffffffffffffffffffffffffffffffff16815260200190815260200160002060008282540192505081905550816002600083815260200190815260200160002060006101000a81548173ffffffffffffffffffffffffffffffffffffffff021916908373ffffffffffffffffffffffffffffffffffffffff160217905550808273ffffffffffffffffffffffffffffffffffffffff16600073ffffffffffffffffffffffffffffffffffffffff167fddf252ad1be2c89b69c2b068fc378daa952ba7f163c4a11628f55a4df523b3ef60405160405180910390a4611d0d6000838360016118fb565b5050565b6000808273ffffffffffffffffffffffffffffffffffffffff163b119050919050565b828054611d40906125e1565b90600052602060002090601f016020900481019282611d625760008555611da9565b82601f10611d7b57805160ff1916838001178555611da9565b82800160010185558215611da9579182015b82811115611da8578251825591602001919060010190611d8d565b5b509050611db69190611dba565b5090565b5b80821115611dd3576000816000905550600101611dbb565b5090565b6000604051905090565b600080fd5b600080fd5b60007fffffffff0000000000000000000000000000000000000000000000000000000082169050919050565b611e2081611deb565b8114611e2b57600080fd5b50565b600081359050611e3d81611e17565b92915050565b600060208284031215611e5957611e58611de1565b5b6000611e6784828501611e2e565b91505092915050565b60008115159050919050565b611e8581611e70565b82525050565b6000602082019050611ea06000830184611e7c565b92915050565b600081519050919050565b600082825260208201905092915050565b60005b83811015611ee0578082015181840152602081019050611ec5565b83811115611eef576000848401525b50505050565b6000601f19601f8301169050919050565b6000611f1182611ea6565b611f1b8185611eb1565b9350611f2b818560208601611ec2565b611f3481611ef5565b840191505092915050565b60006020820190508181036000830152611f598184611f06565b905092915050565b6000819050919050565b611f7481611f61565b8114611f7f57600080fd5b50565b600081359050611f9181611f6b565b92915050565b600060208284031215611fad57611fac611de1565b5b6000611fbb84828501611f82565b91505092915050565b600073ffffffffffffffffffffffffffffffffffffffff82169050919050565b6000611fef82611fc4565b9050919050565b611fff81611fe4565b82525050565b600060208201905061201a6000830184611ff6565b92915050565b61202981611fe4565b811461203457600080fd5b50565b60008135905061204681612020565b92915050565b6000806040838503121561206357612062611de1565b5b600061207185828601612037565b925050602061208285828601611f82565b9150509250929050565b6000602082840312156120a2576120a1611de1565b5b60006120b084828501612037565b91505092915050565b600081519050919050565b600082825260208201905092915050565b6000819050602082019050919050565b600082825260208201905092915050565b600061210182611ea6565b61210b81856120e5565b935061211b818560208601611ec2565b61212481611ef5565b840191505092915050565b600061213b83836120f6565b905092915050565b6000602082019050919050565b600061215b826120b9565b61216581856120c4565b935083602082028501612177856120d5565b8060005b858110156121b35784840389528151612194858261212f565b945061219f83612143565b925060208a0199505060018101905061217b565b50829750879550505050505092915050565b600060208201905081810360008301526121df8184612150565b905092915050565b600080fd5b600080fd5b7f4e487b7100000000000000000000000000000000000000000000000000000000600052604160045260246000fd5b61222982611ef5565b810181811067ffffffffffffffff82111715612248576122476121f1565b5b80604052505050565b600061225b611dd7565b90506122678282612220565b919050565b600067ffffffffffffffff821115612287576122866121f1565b5b61229082611ef5565b9050602081019050919050565b82818337600083830152505050565b60006122bf6122ba8461226c565b612251565b9050828152602081018484840111156122db576122da6121ec565b5b6122e684828561229d565b509392505050565b600082601f830112612303576123026121e7565b5b81356123138482602086016122ac565b91505092915050565b60006020828403121561233257612331611de1565b5b600082013567ffffffffffffffff8111156123505761234f611de6565b5b61235c848285016122ee565b91505092915050565b61236e81611f61565b82525050565b60006020820190506123896000830184612365565b92915050565b6000806000606084860312156123a8576123a7611de1565b5b60006123b686828701612037565b93505060206123c786828701612037565b92505060406123d886828701611f82565b9150509250925092565b6123eb81611e70565b81146123f657600080fd5b50565b600081359050612408816123e2565b92915050565b6000806040838503121561242557612424611de1565b5b600061243385828601612037565b9250506020612444858286016123f9565b9150509250929050565b600067ffffffffffffffff821115612469576124686121f1565b5b61247282611ef5565b9050602081019050919050565b600061249261248d8461244e565b612251565b9050828152602081018484840111156124ae576124ad6121ec565b5b6124b984828561229d565b509392505050565b600082601f8301126124d6576124d56121e7565b5b81356124e684826020860161247f565b91505092915050565b6000806000806080858703121561250957612508611de1565b5b600061251787828801612037565b945050602061252887828801612037565b935050604061253987828801611f82565b925050606085013567ffffffffffffffff81111561255a57612559611de6565b5b612566878288016124c1565b91505092959194509250565b6000806040838503121561258957612588611de1565b5b600061259785828601612037565b92505060206125a885828601612037565b9150509250929050565b7f4e487b7100000000000000000000000000000000000000000000000000000000600052602260045260246000fd5b600060028204905060018216806125f957607f821691505b6020821081141561260d5761260c6125b2565b5b50919050565b7f4552433732313a20617070726f76616c20746f2063757272656e74206f776e6560008201527f7200000000000000000000000000000000000000000000000000000000000000602082015250565b600061266f602183611eb1565b915061267a82612613565b604082019050919050565b6000602082019050818103600083015261269e81612662565b9050919050565b7f4552433732313a20617070726f76652063616c6c6572206973206e6f7420746f60008201527f6b656e206f776e6572206f7220617070726f76656420666f7220616c6c000000602082015250565b6000612701603d83611eb1565b915061270c826126a5565b604082019050919050565b60006020820190508181036000830152612730816126f4565b9050919050565b7f4e487b7100000000000000000000000000000000000000000000000000000000600052603260045260246000fd5b7f4e487b7100000000000000000000000000000000000000000000000000000000600052601160045260246000fd5b60006127a082611f61565b91507fffffffffffffffffffffffffffffffffffffffffffffffffffffffffffffffff8214156127d3576127d2612766565b5b600182019050919050565b600081905092915050565b60006127f482611ea6565b6127fe81856127de565b935061280e818560208601611ec2565b80840191505092915050565b600061282682846127e9565b915081905092915050565b7f4552433732313a2063616c6c6572206973206e6f7420746f6b656e206f776e6560008201527f72206f7220617070726f76656400000000000000000000000000000000000000602082015250565b600061288d602d83611eb1565b915061289882612831565b604082019050919050565b600060208201905081810360008301526128bc81612880565b9050919050565b7f4552433732313a20696e76616c696420746f6b656e2049440000000000000000600082015250565b60006128f9601883611eb1565b9150612904826128c3565b602082019050919050565b60006020820190508181036000830152612928816128ec565b9050919050565b7f4552433732313a2061646472657373207a65726f206973206e6f74206120766160008201527f6c6964206f776e65720000000000000000000000000000000000000000000000602082015250565b600061298b602983611eb1565b91506129968261292f565b604082019050919050565b600060208201905081810360008301526129ba8161297e565b9050919050565b7f4552433732314d657461646174613a2055524920717565727920666f72206e6f60008201527f6e6578697374656e7420746f6b656e0000000000000000000000000000000000602082015250565b6000612a1d602f83611eb1565b9150612a28826129c1565b604082019050919050565b60006020820190508181036000830152612a4c81612a10565b9050919050565b6000612a5f82856127e9565b9150612a6b82846127e9565b91508190509392505050565b6000819050919050565b612a92612a8d82611f61565b612a77565b82525050565b6000612aa482856127e9565b9150612ab08284612a81565b6020820191508190509392505050565b7f4f776e61626c653a206e6577206f776e657220697320746865207a65726f206160008201527f6464726573730000000000000000000000000000000000000000000000000000602082015250565b6000612b1c602683611eb1565b9150612b2782612ac0565b604082019050919050565b60006020820190508181036000830152612b4b81612b0f565b9050919050565b7f4552433732313a207472616e736665722066726f6d20696e636f72726563742060008201527f6f776e6572000000000000000000000000000000000000000000000000000000602082015250565b6000612bae602583611eb1565b9150612bb982612b52565b604082019050919050565b60006020820190508181036000830152612bdd81612ba1565b9050919050565b7f4552433732313a207472616e7366657220746f20746865207a65726f2061646460008201527f7265737300000000000000000000000000000000000000000000000000000000602082015250565b6000612c40602483611eb1565b9150612c4b82612be4565b604082019050919050565b60006020820190508181036000830152612c6f81612c33565b9050919050565b7f4f776e61626c653a2063616c6c6572206973206e6f7420746865206f776e6572600082015250565b6000612cac602083611eb1565b9150612cb782612c76565b602082019050919050565b60006020820190508181036000830152612cdb81612c9f565b9050919050565b7f4552433732314d657461646174613a2055524920736574206f66206e6f6e657860008201527f697374656e7420746f6b656e0000000000000000000000000000000000000000602082015250565b6000612d3e602c83611eb1565b9150612d4982612ce2565b604082019050919050565b60006020820190508181036000830152612d6d81612d31565b9050919050565b7f4552433732313a20617070726f766520746f2063616c6c657200000000000000600082015250565b6000612daa601983611eb1565b9150612db582612d74565b602082019050919050565b60006020820190508181036000830152612dd981612d9d565b9050919050565b7f4552433732313a207472616e7366657220746f206e6f6e20455243373231526560008201527f63656976657220696d706c656d656e7465720000000000000000000000000000602082015250565b6000612e3c603283611eb1565b9150612e4782612de0565b604082019050919050565b60006020820190508181036000830152612e6b81612e2f565b9050919050565b600081519050919050565b600082825260208201905092915050565b6000612e9982612e72565b612ea38185612e7d565b9350612eb3818560208601611ec2565b612ebc81611ef5565b840191505092915050565b6000608082019050612edc6000830187611ff6565b612ee96020830186611ff6565b612ef66040830185612365565b8181036060830152612f088184612e8e565b905095945050505050565b600081519050612f2281611e17565b92915050565b600060208284031215612f3e57612f3d611de1565b5b6000612f4c84828501612f13565b91505092915050565b7f4552433732313a206d696e7420746f20746865207a65726f2061646472657373600082015250565b6000612f8b602083611eb1565b9150612f9682612f55565b602082019050919050565b60006020820190508181036000830152612fba81612f7e565b9050919050565b7f4552433732313a20746f6b656e20616c7265616479206d696e74656400000000600082015250565b6000612ff7601c83611eb1565b915061300282612fc1565b602082019050919050565b6000602082019050818103600083015261302681612fea565b905091905056fea2646970667358221220d2f6611c9d60f6cd529799b449ffcd86fe492c9e980fc4f6b508f10c47a87ff764736f6c63430008090033",
	"linkReferences": {},
	"deployedLinkReferences": {}
}