{
	"_format": "hh-sol-artifact-1",
	"contractName": "NFTMarketplace",
	"sourceName": "contracts/Marketplace.sol",
	"abi": [
		{
			"inputs": [
				{
					"internalType": "address",
					"name": "_nftContract",
					"type": "address"
				}
			],
			"stateMutability": "nonpayable",
			"type": "constructor"
		},
		{
			"anonymous": false,
			"inputs": [
				{
					"indexed": true,
					"internalType": "uint256",
					"name": "tokenId",
					"type": "uint256"
				},
				{
					"indexed": true,
					"internalType": "address",
					"name": "seller",
					"type": "address"
				},
				{
					"indexed": true,
					"internalType": "address",
					"name": "buyer",
					"type": "address"
				},
				{
					"indexed": false,
					"internalType": "uint256",
					"name": "amount",
					"type": "uint256"
				}
			],
			"name": "OfferAccepted",
			"type": "event"
		},
		{
			"anonymous": false,
			"inputs": [
				{
					"indexed": true,
					"internalType": "uint256",
					"name": "tokenId",
					"type": "uint256"
				},
				{
					"indexed": true,
					"internalType": "address",
					"name": "bidder",
					"type": "address"
				},
				{
					"indexed": false,
					"internalType": "uint256",
					"name": "amount",
					"type": "uint256"
				}
			],
			"name": "OfferPlaced",
			"type": "event"
		},
		{
			"anonymous": false,
			"inputs": [
				{
					"indexed": true,
					"internalType": "uint256",
					"name": "tokenId",
					"type": "uint256"
				},
				{
					"indexed": true,
					"internalType": "address",
					"name": "bidder",
					"type": "address"
				},
				{
					"indexed": false,
					"internalType": "uint256",
					"name": "amount",
					"type": "uint256"
				}
			],
			"name": "OfferRejected",
			"type": "event"
		},
		{
			"anonymous": false,
			"inputs": [
				{
					"indexed": true,
					"internalType": "uint256",
					"name": "tokenId",
					"type": "uint256"
				},
				{
					"indexed": true,
					"internalType": "address",
					"name": "seller",
					"type": "address"
				}
			],
			"name": "SaleCancelled",
			"type": "event"
		},
		{
			"anonymous": false,
			"inputs": [
				{
					"indexed": true,
					"internalType": "uint256",
					"name": "tokenId",
					"type": "uint256"
				},
				{
					"indexed": true,
					"internalType": "address",
					"name": "seller",
					"type": "address"
				},
				{
					"indexed": false,
					"internalType": "uint256",
					"name": "price",
					"type": "uint256"
				}
			],
			"name": "SaleCreated",
			"type": "event"
		},
		{
			"anonymous": false,
			"inputs": [
				{
					"indexed": true,
					"internalType": "uint256",
					"name": "tokenId",
					"type": "uint256"
				},
				{
					"indexed": true,
					"internalType": "address",
					"name": "seller",
					"type": "address"
				},
				{
					"indexed": true,
					"internalType": "address",
					"name": "buyer",
					"type": "address"
				},
				{
					"indexed": false,
					"internalType": "uint256",
					"name": "price",
					"type": "uint256"
				}
			],
			"name": "SaleSuccessful",
			"type": "event"
		},
		{
			"inputs": [
				{
					"internalType": "uint256",
					"name": "_tokenId",
					"type": "uint256"
				}
			],
			"name": "buy",
			"outputs": [],
			"stateMutability": "payable",
			"type": "function"
		},
		{
			"inputs": [
				{
					"internalType": "uint256",
					"name": "_tokenId",
					"type": "uint256"
				}
			],
			"name": "cancelSale",
			"outputs": [],
			"stateMutability": "nonpayable",
			"type": "function"
		},
		{
			"inputs": [
				{
					"internalType": "uint256",
					"name": "_tokenId",
					"type": "uint256"
				},
				{
					"internalType": "uint256",
					"name": "_price",
					"type": "uint256"
				},
				{
					"internalType": "uint256",
					"name": "_endAt",
					"type": "uint256"
				},
				{
					"internalType": "enum NFTMarketplace.SaleType",
					"name": "_saleType",
					"type": "uint8"
				}
			],
			"name": "createSale",
			"outputs": [],
			"stateMutability": "nonpayable",
			"type": "function"
		},
		{
			"inputs": [],
			"name": "feePercentage",
			"outputs": [
				{
					"internalType": "uint256",
					"name": "",
					"type": "uint256"
				}
			],
			"stateMutability": "view",
			"type": "function"
		},
		{
			"inputs": [],
			"name": "getListedTokens",
			"outputs": [
				{
					"components": [
						{
							"internalType": "uint256",
							"name": "tokenId",
							"type": "uint256"
						},
						{
							"internalType": "address",
							"name": "seller",
							"type": "address"
						},
						{
							"internalType": "uint256",
							"name": "floorPrice",
							"type": "uint256"
						},
						{
							"internalType": "bool",
							"name": "active",
							"type": "bool"
						},
						{
							"internalType": "uint256",
							"name": "endAt",
							"type": "uint256"
						},
						{
							"internalType": "enum NFTMarketplace.SaleType",
							"name": "saleType",
							"type": "uint8"
						}
					],
					"internalType": "struct NFTMarketplace.Sale[]",
					"name": "",
					"type": "tuple[]"
				}
			],
			"stateMutability": "view",
			"type": "function"
		},
		{
			"inputs": [
				{
					"internalType": "uint256",
					"name": "_tokenId",
					"type": "uint256"
				}
			],
			"name": "getOffersForToken",
			"outputs": [
				{
					"components": [
						{
							"internalType": "address",
							"name": "bidder",
							"type": "address"
						},
						{
							"internalType": "uint256",
							"name": "amount",
							"type": "uint256"
						},
						{
							"internalType": "uint256",
							"name": "createdAt",
							"type": "uint256"
						},
						{
							"internalType": "bool",
							"name": "withdrawn",
							"type": "bool"
						}
					],
					"internalType": "struct NFTMarketplace.Offer[]",
					"name": "",
					"type": "tuple[]"
				}
			],
			"stateMutability": "view",
			"type": "function"
		},
		{
			"inputs": [
				{
					"internalType": "address",
					"name": "_address",
					"type": "address"
				}
			],
			"name": "getSuccessfullyBoughtTokens",
			"outputs": [
				{
					"internalType": "uint256[]",
					"name": "",
					"type": "uint256[]"
				}
			],
			"stateMutability": "view",
			"type": "function"
		},
		{
			"inputs": [
				{
					"internalType": "uint256",
					"name": "",
					"type": "uint256"
				}
			],
			"name": "listedTokenIds",
			"outputs": [
				{
					"internalType": "uint256",
					"name": "",
					"type": "uint256"
				}
			],
			"stateMutability": "view",
			"type": "function"
		},
		{
			"inputs": [
				{
					"internalType": "uint256",
					"name": "_tokenId",
					"type": "uint256"
				},
				{
					"internalType": "uint256",
					"name": "_floorPrice",
					"type": "uint256"
				},
				{
					"internalType": "enum NFTMarketplace.SaleType",
					"name": "saleType",
					"type": "uint8"
				}
			],
			"name": "modifySale",
			"outputs": [],
			"stateMutability": "nonpayable",
			"type": "function"
		},
		{
			"inputs": [],
			"name": "nftContract",
			"outputs": [
				{
					"internalType": "contract ERC721",
					"name": "",
					"type": "address"
				}
			],
			"stateMutability": "view",
			"type": "function"
		},
		{
			"inputs": [],
			"name": "owner",
			"outputs": [
				{
					"internalType": "address",
					"name": "",
					"type": "address"
				}
			],
			"stateMutability": "view",
			"type": "function"
		},
		{
			"inputs": [
				{
					"internalType": "uint256",
					"name": "_tokenId",
					"type": "uint256"
				}
			],
			"name": "placeOffer",
			"outputs": [],
			"stateMutability": "payable",
			"type": "function"
		},
		{
			"inputs": [
				{
					"internalType": "uint256",
					"name": "_tokenId",
					"type": "uint256"
				},
				{
					"internalType": "uint256",
					"name": "_offerIndex",
					"type": "uint256"
				}
			],
			"name": "selectBestOffer",
			"outputs": [],
			"stateMutability": "nonpayable",
			"type": "function"
		},
		{
			"inputs": [
				{
					"internalType": "uint256",
					"name": "_feePercentage",
					"type": "uint256"
				}
			],
			"name": "setFeePercentage",
			"outputs": [],
			"stateMutability": "nonpayable",
			"type": "function"
		},
		{
			"inputs": [
				{
					"internalType": "address",
					"name": "",
					"type": "address"
				},
				{
					"internalType": "uint256",
					"name": "",
					"type": "uint256"
				}
			],
			"name": "successfullyBuy",
			"outputs": [
				{
					"internalType": "uint256",
					"name": "",
					"type": "uint256"
				}
			],
			"stateMutability": "view",
			"type": "function"
		},
		{
			"inputs": [
				{
					"internalType": "uint256",
					"name": "",
					"type": "uint256"
				}
			],
			"name": "tokenBestOfferIndex",
			"outputs": [
				{
					"internalType": "uint256",
					"name": "",
					"type": "uint256"
				}
			],
			"stateMutability": "view",
			"type": "function"
		},
		{
			"inputs": [
				{
					"internalType": "uint256",
					"name": "",
					"type": "uint256"
				}
			],
			"name": "tokenIdToSale",
			"outputs": [
				{
					"internalType": "uint256",
					"name": "tokenId",
					"type": "uint256"
				},
				{
					"internalType": "address",
					"name": "seller",
					"type": "address"
				},
				{
					"internalType": "uint256",
					"name": "floorPrice",
					"type": "uint256"
				},
				{
					"internalType": "bool",
					"name": "active",
					"type": "bool"
				},
				{
					"internalType": "uint256",
					"name": "endAt",
					"type": "uint256"
				},
				{
					"internalType": "enum NFTMarketplace.SaleType",
					"name": "saleType",
					"type": "uint8"
				}
			],
			"stateMutability": "view",
			"type": "function"
		},
		{
			"inputs": [
				{
					"internalType": "uint256",
					"name": "",
					"type": "uint256"
				},
				{
					"internalType": "uint256",
					"name": "",
					"type": "uint256"
				}
			],
			"name": "tokenOffers",
			"outputs": [
				{
					"internalType": "address",
					"name": "bidder",
					"type": "address"
				},
				{
					"internalType": "uint256",
					"name": "amount",
					"type": "uint256"
				},
				{
					"internalType": "uint256",
					"name": "createdAt",
					"type": "uint256"
				},
				{
					"internalType": "bool",
					"name": "withdrawn",
					"type": "bool"
				}
			],
			"stateMutability": "view",
			"type": "function"
		},
		{
			"inputs": [],
			"name": "withdrawFunds",
			"outputs": [],
			"stateMutability": "nonpayable",
			"type": "function"
		},
		{
			"inputs": [
				{
					"internalType": "uint256",
					"name": "_tokenId",
					"type": "uint256"
				}
			],
			"name": "withdrawOffer",
			"outputs": [],
			"stateMutability": "nonpayable",
			"type": "function"
		}
	],
	"bytecode": "0x60806040523480156200001157600080fd5b5060405162003dd638038062003dd6833981810160405281019062000037919062000131565b336000806101000a81548173ffffffffffffffffffffffffffffffffffffffff021916908373ffffffffffffffffffffffffffffffffffffffff160217905550600a60018190555080600660006101000a81548173ffffffffffffffffffffffffffffffffffffffff021916908373ffffffffffffffffffffffffffffffffffffffff1602179055505062000163565b600080fd5b600073ffffffffffffffffffffffffffffffffffffffff82169050919050565b6000620000f982620000cc565b9050919050565b6200010b81620000ec565b81146200011757600080fd5b50565b6000815190506200012b8162000100565b92915050565b6000602082840312156200014a5762000149620000c7565b5b60006200015a848285016200011a565b91505092915050565b613c6380620001736000396000f3fe60806040526004361061011f5760003560e01c8063944985f5116100a0578063bd94b00511610064578063bd94b005146103f2578063d56d229d1461041b578063d96a094a14610446578063e6a3f7a414610462578063f89805e11461048b5761011f565b8063944985f5146102e45780639b20235a14610324578063a001ecdd14610361578063ae06c1b71461038c578063b6feadc8146103b55761011f565b806347a0d79c116100e757806347a0d79c146101ed578063792157261461021657806381785ffe146102535780638610f045146102905780638da5cb5b146102b95761011f565b806324600fc3146101245780632474659a1461013b5780632ba996a5146101575780632e3a88ef1461018257806338644c5e146101ab575b600080fd5b34801561013057600080fd5b506101396104c8565b005b61015560048036038101906101509190612afb565b6105c5565b005b34801561016357600080fd5b5061016c610913565b6040516101799190612d34565b60405180910390f35b34801561018e57600080fd5b506101a960048036038101906101a49190612d56565b610bc1565b005b3480156101b757600080fd5b506101d260048036038101906101cd9190612afb565b611526565b6040516101e496959493929190612dd2565b60405180910390f35b3480156101f957600080fd5b50610214600480360381019061020f9190612e58565b61159c565b005b34801561022257600080fd5b5061023d60048036038101906102389190612ed7565b6118bf565b60405161024a9190612f17565b60405180910390f35b34801561025f57600080fd5b5061027a60048036038101906102759190612afb565b6118f0565b6040516102879190613036565b60405180910390f35b34801561029c57600080fd5b506102b760048036038101906102b29190612afb565b6119e7565b005b3480156102c557600080fd5b506102ce611be4565b6040516102db9190613058565b60405180910390f35b3480156102f057600080fd5b5061030b60048036038101906103069190612d56565b611c08565b60405161031b9493929190613073565b60405180910390f35b34801561033057600080fd5b5061034b60048036038101906103469190612afb565b611c82565b6040516103589190612f17565b60405180910390f35b34801561036d57600080fd5b50610376611c9a565b6040516103839190612f17565b60405180910390f35b34801561039857600080fd5b506103b360048036038101906103ae9190612afb565b611ca0565b005b3480156103c157600080fd5b506103dc60048036038101906103d79190612afb565b611d7c565b6040516103e99190612f17565b60405180910390f35b3480156103fe57600080fd5b5061041960048036038101906104149190612afb565b611da0565b005b34801561042757600080fd5b5061043061201b565b60405161043d9190613117565b60405180910390f35b610460600480360381019061045b9190612afb565b612041565b005b34801561046e57600080fd5b5061048960048036038101906104849190613132565b61255e565b005b34801561049757600080fd5b506104b260048036038101906104ad9190613199565b61285f565b6040516104bf9190613275565b60405180910390f35b60008054906101000a900473ffffffffffffffffffffffffffffffffffffffff1673ffffffffffffffffffffffffffffffffffffffff163373ffffffffffffffffffffffffffffffffffffffff1614610556576040517f08c379a000000000000000000000000000000000000000000000000000000000815260040161054d9061331a565b60405180910390fd5b600047905060008054906101000a900473ffffffffffffffffffffffffffffffffffffffff1673ffffffffffffffffffffffffffffffffffffffff166108fc829081150290604051600060405180830381858888f193505050501580156105c1573d6000803e3d6000fd5b5050565b600073ffffffffffffffffffffffffffffffffffffffff16600660009054906101000a900473ffffffffffffffffffffffffffffffffffffffff1673ffffffffffffffffffffffffffffffffffffffff16636352211e836040518263ffffffff1660e01b81526004016106389190612f17565b602060405180830381865afa158015610655573d6000803e3d6000fd5b505050506040513d601f19601f82011682018060405250810190610679919061334f565b73ffffffffffffffffffffffffffffffffffffffff16036106cf576040517f08c379a00000000000000000000000000000000000000000000000000000000081526004016106c6906133c8565b60405180910390fd5b6004600082815260200190815260200160002060030160009054906101000a900460ff16610732576040517f08c379a000000000000000000000000000000000000000000000000000000000815260040161072990613434565b60405180910390fd5b426004600083815260200190815260200160002060040154101561078b576040517f08c379a0000000000000000000000000000000000000000000000000000000008152600401610782906134a0565b60405180910390fd5b600034116107ce576040517f08c379a00000000000000000000000000000000000000000000000000000000081526004016107c59061350c565b60405180910390fd5b6002600082815260200190815260200160002060405180608001604052803373ffffffffffffffffffffffffffffffffffffffff16815260200134815260200142815260200160001515815250908060018154018082558091505060019003906000526020600020906004020160009091909190915060008201518160000160006101000a81548173ffffffffffffffffffffffffffffffffffffffff021916908373ffffffffffffffffffffffffffffffffffffffff160217905550602082015181600101556040820151816002015560608201518160030160006101000a81548160ff02191690831515021790555050503373ffffffffffffffffffffffffffffffffffffffff16817fd294afec9d7ab02d1bc3b945a2e833190e9ac8c221c99a27a16afab5cf59e928346040516109089190612f17565b60405180910390a350565b6060600060078054905067ffffffffffffffff8111156109365761093561352c565b5b60405190808252806020026020018201604052801561096f57816020015b61095c6129da565b8152602001906001900390816109545790505b50905060005b600780549050811015610bb9576000600782815481106109985761099761355b565b5b906000526020600020015490506000600460008381526020019081526020016000206040518060c0016040529081600082015481526020016001820160009054906101000a900473ffffffffffffffffffffffffffffffffffffffff1673ffffffffffffffffffffffffffffffffffffffff1673ffffffffffffffffffffffffffffffffffffffff168152602001600282015481526020016003820160009054906101000a900460ff16151515158152602001600482015481526020016005820160009054906101000a900460ff166001811115610a7957610a78612bbf565b5b6001811115610a8b57610a8a612bbf565b5b8152505090504281608001511115610ba457600460008381526020019081526020016000206040518060c0016040529081600082015481526020016001820160009054906101000a900473ffffffffffffffffffffffffffffffffffffffff1673ffffffffffffffffffffffffffffffffffffffff1673ffffffffffffffffffffffffffffffffffffffff168152602001600282015481526020016003820160009054906101000a900460ff16151515158152602001600482015481526020016005820160009054906101000a900460ff166001811115610b6f57610b6e612bbf565b5b6001811115610b8157610b80612bbf565b5b81525050848481518110610b9857610b9761355b565b5b60200260200101819052505b50508080610bb1906135b9565b915050610975565b508091505090565b3373ffffffffffffffffffffffffffffffffffffffff16600660009054906101000a900473ffffffffffffffffffffffffffffffffffffffff1673ffffffffffffffffffffffffffffffffffffffff16636352211e846040518263ffffffff1660e01b8152600401610c339190612f17565b602060405180830381865afa158015610c50573d6000803e3d6000fd5b505050506040513d601f19601f82011682018060405250810190610c74919061334f565b73ffffffffffffffffffffffffffffffffffffffff1614610cca576040517f08c379a0000000000000000000000000000000000000000000000000000000008152600401610cc190613673565b60405180910390fd5b6000600260008481526020019081526020016000208054905011610d23576040517f08c379a0000000000000000000000000000000000000000000000000000000008152600401610d1a906136df565b60405180910390fd5b6000600260008481526020019081526020016000208281548110610d4a57610d4961355b565b5b90600052602060002090600402016040518060800160405290816000820160009054906101000a900473ffffffffffffffffffffffffffffffffffffffff1673ffffffffffffffffffffffffffffffffffffffff1673ffffffffffffffffffffffffffffffffffffffff16815260200160018201548152602001600282015481526020016003820160009054906101000a900460ff1615151515815250509050600073ffffffffffffffffffffffffffffffffffffffff16816000015173ffffffffffffffffffffffffffffffffffffffff1603610e5d576040517f08c379a0000000000000000000000000000000000000000000000000000000008152600401610e549061374b565b60405180910390fd5b60006004600085815260200190815260200160002090508060030160009054906101000a900460ff16610ec5576040517f08c379a0000000000000000000000000000000000000000000000000000000008152600401610ebc90613434565b60405180910390fd5b600060646001548460200151610edb919061376b565b610ee591906137dc565b90506000818460200151610ef9919061380d565b905060005b60026000888152602001908152602001600020805490508110156110b3578581146110a0576000600260008981526020019081526020016000208281548110610f4a57610f4961355b565b5b90600052602060002090600402016040518060800160405290816000820160009054906101000a900473ffffffffffffffffffffffffffffffffffffffff1673ffffffffffffffffffffffffffffffffffffffff1673ffffffffffffffffffffffffffffffffffffffff16815260200160018201548152602001600282015481526020016003820160009054906101000a900460ff161515151581525050905060008160200151111561109e57806000015173ffffffffffffffffffffffffffffffffffffffff166108fc82602001519081150290604051600060405180830381858888f19350505050158015611045573d6000803e3d6000fd5b50806000015173ffffffffffffffffffffffffffffffffffffffff16887f9caafb378b7826c9fc2d0bfcf6baca01488b057811e982b31b21d74dfde08ef983602001516040516110959190612f17565b60405180910390a35b505b80806110ab906135b9565b915050610efe565b506000600660009054906101000a900473ffffffffffffffffffffffffffffffffffffffff1673ffffffffffffffffffffffffffffffffffffffff16636352211e886040518263ffffffff1660e01b81526004016111119190612f17565b602060405180830381865afa15801561112e573d6000803e3d6000fd5b505050506040513d601f19601f82011682018060405250810190611152919061334f565b9050600660009054906101000a900473ffffffffffffffffffffffffffffffffffffffff1673ffffffffffffffffffffffffffffffffffffffff166323b872dd8287600001518a6040518463ffffffff1660e01b81526004016111b793929190613862565b600060405180830381600087803b1580156111d157600080fd5b505af11580156111e5573d6000803e3d6000fd5b505050503073ffffffffffffffffffffffffffffffffffffffff168173ffffffffffffffffffffffffffffffffffffffff1614611264578073ffffffffffffffffffffffffffffffffffffffff166108fc839081150290604051600060405180830381858888f19350505050158015611262573d6000803e3d6000fd5b505b600060056000876000015173ffffffffffffffffffffffffffffffffffffffff1673ffffffffffffffffffffffffffffffffffffffff1681526020019081526020016000209050808890806001815401808255809150506001900390600052602060002001600090919091909150556000600560008473ffffffffffffffffffffffffffffffffffffffff1673ffffffffffffffffffffffffffffffffffffffff168152602001908152602001600020905060005b81805490508110156113ef57898282815481106113395761133861355b565b5b9060005260206000200154036113dc576001828054905061135a919061380d565b81146113b0578160018380549050611372919061380d565b815481106113835761138261355b565b5b90600052602060002001548282815481106113a1576113a061355b565b5b90600052602060002001819055505b818054806113c1576113c0613899565b5b600190038181906000526020600020016000905590556113ef565b80806113e7906135b9565b915050611319565b5087600360008b815260200190815260200160002081905550600260008a815260200190815260200160002060006114279190612a3a565b611430896128f6565b600460008a81526020019081526020016000206000808201600090556001820160006101000a81549073ffffffffffffffffffffffffffffffffffffffff021916905560028201600090556003820160006101000a81549060ff021916905560048201600090556005820160006101000a81549060ff02191690555050866000015173ffffffffffffffffffffffffffffffffffffffff163373ffffffffffffffffffffffffffffffffffffffff168a7fc67f49229cab3f614ad390c12432e0e671552dcfd15e24ddc005cf5a01a021358a602001516040516115139190612f17565b60405180910390a4505050505050505050565b60046020528060005260406000206000915090508060000154908060010160009054906101000a900473ffffffffffffffffffffffffffffffffffffffff16908060020154908060030160009054906101000a900460ff16908060040154908060050160009054906101000a900460ff16905086565b3373ffffffffffffffffffffffffffffffffffffffff16600660009054906101000a900473ffffffffffffffffffffffffffffffffffffffff1673ffffffffffffffffffffffffffffffffffffffff16636352211e856040518263ffffffff1660e01b815260040161160e9190612f17565b602060405180830381865afa15801561162b573d6000803e3d6000fd5b505050506040513d601f19601f8201168201806040525081019061164f919061334f565b73ffffffffffffffffffffffffffffffffffffffff16146116a5576040517f08c379a000000000000000000000000000000000000000000000000000000000815260040161169c9061393a565b60405180910390fd5b600082116116e8576040517f08c379a00000000000000000000000000000000000000000000000000000000081526004016116df906139a6565b60405180910390fd5b3373ffffffffffffffffffffffffffffffffffffffff16837fd9e530acb8429c8e5337d9d3230e4cc7d742e32c2fc8d76608c19f2e1701ed0460405160405180910390a36000600460008581526020019081526020016000206004015490506040518060c001604052808581526020013373ffffffffffffffffffffffffffffffffffffffff16815260200184815260200160011515815260200182815260200183600181111561179c5761179b612bbf565b5b815250600460008681526020019081526020016000206000820151816000015560208201518160010160006101000a81548173ffffffffffffffffffffffffffffffffffffffff021916908373ffffffffffffffffffffffffffffffffffffffff1602179055506040820151816002015560608201518160030160006101000a81548160ff0219169083151502179055506080820151816004015560a08201518160050160006101000a81548160ff0219169083600181111561186257611861612bbf565b5b02179055509050503373ffffffffffffffffffffffffffffffffffffffff16847fa29262303591d48ce94646a46b652916ce782073349bb5dc261ac4c5237d9397856040516118b19190612f17565b60405180910390a350505050565b600560205281600052604060002081815481106118db57600080fd5b90600052602060002001600091509150505481565b606060026000838152602001908152602001600020805480602002602001604051908101604052809291908181526020016000905b828210156119dc57838290600052602060002090600402016040518060800160405290816000820160009054906101000a900473ffffffffffffffffffffffffffffffffffffffff1673ffffffffffffffffffffffffffffffffffffffff1673ffffffffffffffffffffffffffffffffffffffff16815260200160018201548152602001600282015481526020016003820160009054906101000a900460ff16151515158152505081526020019060010190611925565b505050509050919050565b6004600082815260200190815260200160002060030160009054906101000a900460ff16611a4a576040517f08c379a0000000000000000000000000000000000000000000000000000000008152600401611a4190613434565b60405180910390fd5b600060026000838152602001908152602001600020905060005b8180549050811015611bdf573373ffffffffffffffffffffffffffffffffffffffff16828281548110611a9a57611a9961355b565b5b906000526020600020906004020160000160009054906101000a900473ffffffffffffffffffffffffffffffffffffffff1673ffffffffffffffffffffffffffffffffffffffff16148015611b1e5750818181548110611afd57611afc61355b565b5b906000526020600020906004020160030160009054906101000a900460ff16155b15611bcc576001828281548110611b3857611b3761355b565b5b906000526020600020906004020160030160006101000a81548160ff0219169083151502179055503373ffffffffffffffffffffffffffffffffffffffff166108fc838381548110611b8d57611b8c61355b565b5b9060005260206000209060040201600101549081150290604051600060405180830381858888f19350505050158015611bca573d6000803e3d6000fd5b505b8080611bd7906135b9565b915050611a64565b505050565b60008054906101000a900473ffffffffffffffffffffffffffffffffffffffff1681565b60026020528160005260406000208181548110611c2457600080fd5b9060005260206000209060040201600091509150508060000160009054906101000a900473ffffffffffffffffffffffffffffffffffffffff16908060010154908060020154908060030160009054906101000a900460ff16905084565b60036020528060005260406000206000915090505481565b60015481565b60008054906101000a900473ffffffffffffffffffffffffffffffffffffffff1673ffffffffffffffffffffffffffffffffffffffff163373ffffffffffffffffffffffffffffffffffffffff1614611d2e576040517f08c379a0000000000000000000000000000000000000000000000000000000008152600401611d259061331a565b60405180910390fd5b6005811115611d72576040517f08c379a0000000000000000000000000000000000000000000000000000000008152600401611d6990613a38565b60405180910390fd5b8060018190555050565b60078181548110611d8c57600080fd5b906000526020600020016000915090505481565b60006004600083815260200190815260200160002090508060030160009054906101000a900460ff16611e08576040517f08c379a0000000000000000000000000000000000000000000000000000000008152600401611dff90613434565b60405180910390fd5b3373ffffffffffffffffffffffffffffffffffffffff16600660009054906101000a900473ffffffffffffffffffffffffffffffffffffffff1673ffffffffffffffffffffffffffffffffffffffff16636352211e846040518263ffffffff1660e01b8152600401611e7a9190612f17565b602060405180830381865afa158015611e97573d6000803e3d6000fd5b505050506040513d601f19601f82011682018060405250810190611ebb919061334f565b73ffffffffffffffffffffffffffffffffffffffff1614611f11576040517f08c379a0000000000000000000000000000000000000000000000000000000008152600401611f0890613aca565b60405180910390fd5b600460008381526020019081526020016000206000808201600090556001820160006101000a81549073ffffffffffffffffffffffffffffffffffffffff021916905560028201600090556003820160006101000a81549060ff021916905560048201600090556005820160006101000a81549060ff0219169055505060008160030160006101000a81548160ff021916908315150217905550611fb4826128f6565b600260008381526020019081526020016000206000611fd39190612a3a565b3373ffffffffffffffffffffffffffffffffffffffff16827fd9e530acb8429c8e5337d9d3230e4cc7d742e32c2fc8d76608c19f2e1701ed0460405160405180910390a35050565b600660009054906101000a900473ffffffffffffffffffffffffffffffffffffffff1681565b60006004600083815260200190815260200160002090508060030160009054906101000a900460ff166120a9576040517f08c379a00000000000000000000000000000000000000000000000000000000081526004016120a090613434565b60405180910390fd5b80600201543410156120f0576040517f08c379a00000000000000000000000000000000000000000000000000000000081526004016120e790613b36565b60405180910390fd5b4281600401541015612137576040517f08c379a000000000000000000000000000000000000000000000000000000000815260040161212e90613ba2565b60405180910390fd5b60008160010160009054906101000a900473ffffffffffffffffffffffffffffffffffffffff169050600060646001548460020154612176919061376b565b61218091906137dc565b905060008360010160009054906101000a900473ffffffffffffffffffffffffffffffffffffffff169050600460008681526020019081526020016000206000808201600090556001820160006101000a81549073ffffffffffffffffffffffffffffffffffffffff021916905560028201600090556003820160006101000a81549060ff021916905560048201600090556005820160006101000a81549060ff0219169055505060008234612236919061380d565b9050600660009054906101000a900473ffffffffffffffffffffffffffffffffffffffff1673ffffffffffffffffffffffffffffffffffffffff166323b872dd8333896040518463ffffffff1660e01b815260040161229793929190613bc2565b600060405180830381600087803b1580156122b157600080fd5b505af11580156122c5573d6000803e3d6000fd5b505050508373ffffffffffffffffffffffffffffffffffffffff166108fc829081150290604051600060405180830381858888f1935050505015801561230f573d6000803e3d6000fd5b503073ffffffffffffffffffffffffffffffffffffffff168273ffffffffffffffffffffffffffffffffffffffff1614612462576000600560008473ffffffffffffffffffffffffffffffffffffffff1673ffffffffffffffffffffffffffffffffffffffff168152602001908152602001600020905060005b818054905081101561245f57878282815481106123a9576123a861355b565b5b90600052602060002001540361244c57600182805490506123ca919061380d565b81146124205781600183805490506123e2919061380d565b815481106123f3576123f261355b565b5b90600052602060002001548282815481106124115761241061355b565b5b90600052602060002001819055505b8180548061243157612430613899565b5b6001900381819060005260206000200160009055905561245f565b8080612457906135b9565b915050612389565b50505b600560003373ffffffffffffffffffffffffffffffffffffffff1673ffffffffffffffffffffffffffffffffffffffff1681526020019081526020016000208690806001815401808255809150506001900390600052602060002001600090919091909150553373ffffffffffffffffffffffffffffffffffffffff168560010160009054906101000a900473ffffffffffffffffffffffffffffffffffffffff1673ffffffffffffffffffffffffffffffffffffffff16877f64b02497e7e7114dfbf373decb8fc827c41794498699d8742beb61a0038f6c5b886002015460405161254e9190612f17565b60405180910390a4505050505050565b3373ffffffffffffffffffffffffffffffffffffffff16600660009054906101000a900473ffffffffffffffffffffffffffffffffffffffff1673ffffffffffffffffffffffffffffffffffffffff16636352211e866040518263ffffffff1660e01b81526004016125d09190612f17565b602060405180830381865afa1580156125ed573d6000803e3d6000fd5b505050506040513d601f19601f82011682018060405250810190612611919061334f565b73ffffffffffffffffffffffffffffffffffffffff1614612667576040517f08c379a000000000000000000000000000000000000000000000000000000000815260040161265e9061393a565b60405180910390fd5b600083116126aa576040517f08c379a00000000000000000000000000000000000000000000000000000000081526004016126a1906139a6565b60405180910390fd5b6040518060c001604052808581526020013373ffffffffffffffffffffffffffffffffffffffff16815260200184815260200160011515815260200183426126f29190613bf9565b815260200182600181111561270a57612709612bbf565b5b815250600460008681526020019081526020016000206000820151816000015560208201518160010160006101000a81548173ffffffffffffffffffffffffffffffffffffffff021916908373ffffffffffffffffffffffffffffffffffffffff1602179055506040820151816002015560608201518160030160006101000a81548160ff0219169083151502179055506080820151816004015560a08201518160050160006101000a81548160ff021916908360018111156127d0576127cf612bbf565b5b02179055509050506127e1846128f6565b60078490806001815401808255809150506001900390600052602060002001600090919091909150553373ffffffffffffffffffffffffffffffffffffffff16847fa29262303591d48ce94646a46b652916ce782073349bb5dc261ac4c5237d9397856040516128519190612f17565b60405180910390a350505050565b6060600560008373ffffffffffffffffffffffffffffffffffffffff1673ffffffffffffffffffffffffffffffffffffffff1681526020019081526020016000208054806020026020016040519081016040528092919081815260200182805480156128ea57602002820191906000526020600020905b8154815260200190600101908083116128d6575b50505050509050919050565b60005b6007805490508110156129d657816007828154811061291b5761291a61355b565b5b9060005260206000200154036129c357600160078054905061293d919061380d565b81146129965760076001600780549050612957919061380d565b815481106129685761296761355b565b5b9060005260206000200154600782815481106129875761298661355b565b5b90600052602060002001819055505b60078054806129a8576129a7613899565b5b600190038181906000526020600020016000905590556129d6565b80806129ce906135b9565b9150506128f9565b5050565b6040518060c0016040528060008152602001600073ffffffffffffffffffffffffffffffffffffffff168152602001600081526020016000151581526020016000815260200160006001811115612a3457612a33612bbf565b5b81525090565b5080546000825560040290600052602060002090810190612a5b9190612a5e565b50565b5b80821115612abc57600080820160006101000a81549073ffffffffffffffffffffffffffffffffffffffff0219169055600182016000905560028201600090556003820160006101000a81549060ff021916905550600401612a5f565b5090565b600080fd5b6000819050919050565b612ad881612ac5565b8114612ae357600080fd5b50565b600081359050612af581612acf565b92915050565b600060208284031215612b1157612b10612ac0565b5b6000612b1f84828501612ae6565b91505092915050565b600081519050919050565b600082825260208201905092915050565b6000819050602082019050919050565b612b5d81612ac5565b82525050565b600073ffffffffffffffffffffffffffffffffffffffff82169050919050565b6000612b8e82612b63565b9050919050565b612b9e81612b83565b82525050565b60008115159050919050565b612bb981612ba4565b82525050565b7f4e487b7100000000000000000000000000000000000000000000000000000000600052602160045260246000fd5b60028110612bff57612bfe612bbf565b5b50565b6000819050612c1082612bee565b919050565b6000612c2082612c02565b9050919050565b612c3081612c15565b82525050565b60c082016000820151612c4c6000850182612b54565b506020820151612c5f6020850182612b95565b506040820151612c726040850182612b54565b506060820151612c856060850182612bb0565b506080820151612c986080850182612b54565b5060a0820151612cab60a0850182612c27565b50505050565b6000612cbd8383612c36565b60c08301905092915050565b6000602082019050919050565b6000612ce182612b28565b612ceb8185612b33565b9350612cf683612b44565b8060005b83811015612d27578151612d0e8882612cb1565b9750612d1983612cc9565b925050600181019050612cfa565b5085935050505092915050565b60006020820190508181036000830152612d4e8184612cd6565b905092915050565b60008060408385031215612d6d57612d6c612ac0565b5b6000612d7b85828601612ae6565b9250506020612d8c85828601612ae6565b9150509250929050565b612d9f81612ac5565b82525050565b612dae81612b83565b82525050565b612dbd81612ba4565b82525050565b612dcc81612c15565b82525050565b600060c082019050612de76000830189612d96565b612df46020830188612da5565b612e016040830187612d96565b612e0e6060830186612db4565b612e1b6080830185612d96565b612e2860a0830184612dc3565b979650505050505050565b60028110612e4057600080fd5b50565b600081359050612e5281612e33565b92915050565b600080600060608486031215612e7157612e70612ac0565b5b6000612e7f86828701612ae6565b9350506020612e9086828701612ae6565b9250506040612ea186828701612e43565b9150509250925092565b612eb481612b83565b8114612ebf57600080fd5b50565b600081359050612ed181612eab565b92915050565b60008060408385031215612eee57612eed612ac0565b5b6000612efc85828601612ec2565b9250506020612f0d85828601612ae6565b9150509250929050565b6000602082019050612f2c6000830184612d96565b92915050565b600081519050919050565b600082825260208201905092915050565b6000819050602082019050919050565b608082016000820151612f746000850182612b95565b506020820151612f876020850182612b54565b506040820151612f9a6040850182612b54565b506060820151612fad6060850182612bb0565b50505050565b6000612fbf8383612f5e565b60808301905092915050565b6000602082019050919050565b6000612fe382612f32565b612fed8185612f3d565b9350612ff883612f4e565b8060005b838110156130295781516130108882612fb3565b975061301b83612fcb565b925050600181019050612ffc565b5085935050505092915050565b600060208201905081810360008301526130508184612fd8565b905092915050565b600060208201905061306d6000830184612da5565b92915050565b60006080820190506130886000830187612da5565b6130956020830186612d96565b6130a26040830185612d96565b6130af6060830184612db4565b95945050505050565b6000819050919050565b60006130dd6130d86130d384612b63565b6130b8565b612b63565b9050919050565b60006130ef826130c2565b9050919050565b6000613101826130e4565b9050919050565b613111816130f6565b82525050565b600060208201905061312c6000830184613108565b92915050565b6000806000806080858703121561314c5761314b612ac0565b5b600061315a87828801612ae6565b945050602061316b87828801612ae6565b935050604061317c87828801612ae6565b925050606061318d87828801612e43565b91505092959194509250565b6000602082840312156131af576131ae612ac0565b5b60006131bd84828501612ec2565b91505092915050565b600081519050919050565b600082825260208201905092915050565b6000819050602082019050919050565b60006131fe8383612b54565b60208301905092915050565b6000602082019050919050565b6000613222826131c6565b61322c81856131d1565b9350613237836131e2565b8060005b8381101561326857815161324f88826131f2565b975061325a8361320a565b92505060018101905061323b565b5085935050505092915050565b6000602082019050818103600083015261328f8184613217565b905092915050565b600082825260208201905092915050565b7f4f6e6c7920636f6e7472616374206f776e65722063616e2063616c6c2074686960008201527f732066756e6374696f6e00000000000000000000000000000000000000000000602082015250565b6000613304602a83613297565b915061330f826132a8565b604082019050919050565b60006020820190508181036000830152613333816132f7565b9050919050565b60008151905061334981612eab565b92915050565b60006020828403121561336557613364612ac0565b5b60006133738482850161333a565b91505092915050565b7f546f6b656e206e6f7420666f756e640000000000000000000000000000000000600082015250565b60006133b2600f83613297565b91506133bd8261337c565b602082019050919050565b600060208201905081810360008301526133e1816133a5565b9050919050565b7f53616c65206973206e6f74206163746976650000000000000000000000000000600082015250565b600061341e601283613297565b9150613429826133e8565b602082019050919050565b6000602082019050818103600083015261344d81613411565b9050919050565b7f53616c6520656e64656400000000000000000000000000000000000000000000600082015250565b600061348a600a83613297565b915061349582613454565b602082019050919050565b600060208201905081810360008301526134b98161347d565b9050919050565b7f416d6f756e74206d7573742062652067726561746572207468616e207a65726f600082015250565b60006134f6602083613297565b9150613501826134c0565b602082019050919050565b60006020820190508181036000830152613525816134e9565b9050919050565b7f4e487b7100000000000000000000000000000000000000000000000000000000600052604160045260246000fd5b7f4e487b7100000000000000000000000000000000000000000000000000000000600052603260045260246000fd5b7f4e487b7100000000000000000000000000000000000000000000000000000000600052601160045260246000fd5b60006135c482612ac5565b91507fffffffffffffffffffffffffffffffffffffffffffffffffffffffffffffffff82036135f6576135f561358a565b5b600182019050919050565b7f4f6e6c792074686520746f6b656e206f776e65722063616e2073656c6563742060008201527f616e206f66666572000000000000000000000000000000000000000000000000602082015250565b600061365d602883613297565b915061366882613601565b604082019050919050565b6000602082019050818103600083015261368c81613650565b9050919050565b7f4e6f206f666665727320617661696c61626c6500000000000000000000000000600082015250565b60006136c9601383613297565b91506136d482613693565b602082019050919050565b600060208201905081810360008301526136f8816136bc565b9050919050565b7f496e76616c6964206f6666657200000000000000000000000000000000000000600082015250565b6000613735600d83613297565b9150613740826136ff565b602082019050919050565b6000602082019050818103600083015261376481613728565b9050919050565b600061377682612ac5565b915061378183612ac5565b925082820261378f81612ac5565b915082820484148315176137a6576137a561358a565b5b5092915050565b7f4e487b7100000000000000000000000000000000000000000000000000000000600052601260045260246000fd5b60006137e782612ac5565b91506137f283612ac5565b925082613802576138016137ad565b5b828204905092915050565b600061381882612ac5565b915061382383612ac5565b925082820390508181111561383b5761383a61358a565b5b92915050565b600061384c826130e4565b9050919050565b61385c81613841565b82525050565b60006060820190506138776000830186613853565b6138846020830185612da5565b6138916040830184612d96565b949350505050565b7f4e487b7100000000000000000000000000000000000000000000000000000000600052603160045260246000fd5b7f4f6e6c792074686520746f6b656e206f776e65722063616e206372656174652060008201527f612073616c650000000000000000000000000000000000000000000000000000602082015250565b6000613924602683613297565b915061392f826138c8565b604082019050919050565b6000602082019050818103600083015261395381613917565b9050919050565b7f5072696365206d7573742062652067726561746572207468616e207a65726f00600082015250565b6000613990601f83613297565b915061399b8261395a565b602082019050919050565b600060208201905081810360008301526139bf81613983565b9050919050565b7f4665652070657263656e74616765206d757374206265206c657373207468616e60008201527f206f7220657175616c20746f2035000000000000000000000000000000000000602082015250565b6000613a22602e83613297565b9150613a2d826139c6565b604082019050919050565b60006020820190508181036000830152613a5181613a15565b9050919050565b7f4f6e6c792074686520746f6b656e206f776e65722063616e2063616e63656c2060008201527f612073616c650000000000000000000000000000000000000000000000000000602082015250565b6000613ab4602683613297565b9150613abf82613a58565b604082019050919050565b60006020820190508181036000830152613ae381613aa7565b9050919050565b7f496e73756666696369656e74207061796d656e74000000000000000000000000600082015250565b6000613b20601483613297565b9150613b2b82613aea565b602082019050919050565b60006020820190508181036000830152613b4f81613b13565b9050919050565b7f73616c6520656e64656400000000000000000000000000000000000000000000600082015250565b6000613b8c600a83613297565b9150613b9782613b56565b602082019050919050565b60006020820190508181036000830152613bbb81613b7f565b9050919050565b6000606082019050613bd76000830186612da5565b613be46020830185612da5565b613bf16040830184612d96565b949350505050565b6000613c0482612ac5565b9150613c0f83612ac5565b9250828201905080821115613c2757613c2661358a565b5b9291505056fea2646970667358221220927249b6fe36f6b9569f0e10b595922726e9bcb6a3b919807c4a3bb0ce52f08664736f6c63430008130033",
	"linkReferences": {},
	"deployedLinkReferences": {}
}