{
	"_format": "hh-sol-artifact-1",
	"contractName": "NFTMarketplace",
	"sourceName": "contracts/Marketplace.sol",
	"abi": [
		{
			"inputs": [
				{
					"internalType": "address",
					"name": "_nftContract",
					"type": "address"
				}
			],
			"stateMutability": "nonpayable",
			"type": "constructor"
		},
		{
			"anonymous": false,
			"inputs": [
				{
					"indexed": true,
					"internalType": "uint256",
					"name": "tokenId",
					"type": "uint256"
				},
				{
					"indexed": true,
					"internalType": "address",
					"name": "highestBidder",
					"type": "address"
				},
				{
					"indexed": false,
					"internalType": "uint256",
					"name": "winningBid",
					"type": "uint256"
				}
			],
			"name": "AuctionEnded",
			"type": "event"
		},
		{
			"anonymous": false,
			"inputs": [
				{
					"indexed": true,
					"internalType": "uint256",
					"name": "tokenId",
					"type": "uint256"
				},
				{
					"indexed": true,
					"internalType": "uint256",
					"name": "floorPrice",
					"type": "uint256"
				},
				{
					"indexed": true,
					"internalType": "uint256",
					"name": "endAt",
					"type": "uint256"
				}
			],
			"name": "AuctionStarted",
			"type": "event"
		},
		{
			"anonymous": false,
			"inputs": [
				{
					"indexed": true,
					"internalType": "uint256",
					"name": "tokenId",
					"type": "uint256"
				},
				{
					"indexed": true,
					"internalType": "address",
					"name": "bidder",
					"type": "address"
				},
				{
					"indexed": false,
					"internalType": "uint256",
					"name": "amount",
					"type": "uint256"
				}
			],
			"name": "BidPlaced",
			"type": "event"
		},
		{
			"anonymous": false,
			"inputs": [
				{
					"indexed": true,
					"internalType": "uint256",
					"name": "tokenId",
					"type": "uint256"
				},
				{
					"indexed": true,
					"internalType": "address",
					"name": "seller",
					"type": "address"
				}
			],
			"name": "SaleCancelled",
			"type": "event"
		},
		{
			"anonymous": false,
			"inputs": [
				{
					"indexed": true,
					"internalType": "uint256",
					"name": "tokenId",
					"type": "uint256"
				},
				{
					"indexed": true,
					"internalType": "address",
					"name": "seller",
					"type": "address"
				},
				{
					"indexed": false,
					"internalType": "uint256",
					"name": "price",
					"type": "uint256"
				}
			],
			"name": "SaleCreated",
			"type": "event"
		},
		{
			"anonymous": false,
			"inputs": [
				{
					"indexed": true,
					"internalType": "uint256",
					"name": "tokenId",
					"type": "uint256"
				},
				{
					"indexed": true,
					"internalType": "address",
					"name": "seller",
					"type": "address"
				},
				{
					"indexed": true,
					"internalType": "address",
					"name": "buyer",
					"type": "address"
				},
				{
					"indexed": false,
					"internalType": "uint256",
					"name": "price",
					"type": "uint256"
				}
			],
			"name": "SaleSuccessful",
			"type": "event"
		},
		{
			"inputs": [
				{
					"internalType": "uint256",
					"name": "tokenId",
					"type": "uint256"
				}
			],
			"name": "bid",
			"outputs": [],
			"stateMutability": "payable",
			"type": "function"
		},
		{
			"inputs": [
				{
					"internalType": "uint256",
					"name": "_tokenId",
					"type": "uint256"
				}
			],
			"name": "buy",
			"outputs": [],
			"stateMutability": "payable",
			"type": "function"
		},
		{
			"inputs": [
				{
					"internalType": "uint256",
					"name": "",
					"type": "uint256"
				},
				{
					"internalType": "uint256",
					"name": "",
					"type": "uint256"
				}
			],
			"name": "buyRequest",
			"outputs": [
				{
					"internalType": "address",
					"name": "requester",
					"type": "address"
				},
				{
					"internalType": "uint256",
					"name": "amount",
					"type": "uint256"
				}
			],
			"stateMutability": "view",
			"type": "function"
		},
		{
			"inputs": [
				{
					"internalType": "uint256",
					"name": "_tokenId",
					"type": "uint256"
				}
			],
			"name": "cancelSale",
			"outputs": [],
			"stateMutability": "nonpayable",
			"type": "function"
		},
		{
			"inputs": [
				{
					"internalType": "uint256",
					"name": "_tokenId",
					"type": "uint256"
				},
				{
					"internalType": "uint256",
					"name": "_price",
					"type": "uint256"
				},
				{
					"internalType": "uint256",
					"name": "_endAt",
					"type": "uint256"
				},
				{
					"internalType": "enum NFTMarketplace.SaleType",
					"name": "saleType",
					"type": "uint8"
				}
			],
			"name": "createSale",
			"outputs": [],
			"stateMutability": "nonpayable",
			"type": "function"
		},
		{
			"inputs": [
				{
					"internalType": "uint256",
					"name": "tokenId",
					"type": "uint256"
				}
			],
			"name": "endAuction",
			"outputs": [],
			"stateMutability": "nonpayable",
			"type": "function"
		},
		{
			"inputs": [],
			"name": "feePercentage",
			"outputs": [
				{
					"internalType": "uint256",
					"name": "",
					"type": "uint256"
				}
			],
			"stateMutability": "view",
			"type": "function"
		},
		{
			"inputs": [],
			"name": "getListedTokens",
			"outputs": [
				{
					"components": [
						{
							"internalType": "uint256",
							"name": "tokenId",
							"type": "uint256"
						},
						{
							"internalType": "address",
							"name": "seller",
							"type": "address"
						},
						{
							"internalType": "uint256",
							"name": "floorPrice",
							"type": "uint256"
						},
						{
							"internalType": "bool",
							"name": "active",
							"type": "bool"
						},
						{
							"internalType": "uint256",
							"name": "endAt",
							"type": "uint256"
						},
						{
							"internalType": "enum NFTMarketplace.SaleType",
							"name": "SaleType",
							"type": "uint8"
						}
					],
					"internalType": "struct NFTMarketplace.Sale[]",
					"name": "",
					"type": "tuple[]"
				}
			],
			"stateMutability": "view",
			"type": "function"
		},
		{
			"inputs": [
				{
					"internalType": "address",
					"name": "_address",
					"type": "address"
				}
			],
			"name": "getSuccessfullyBoughtTokens",
			"outputs": [
				{
					"internalType": "uint256[]",
					"name": "",
					"type": "uint256[]"
				}
			],
			"stateMutability": "view",
			"type": "function"
		},
		{
			"inputs": [
				{
					"internalType": "uint256",
					"name": "",
					"type": "uint256"
				}
			],
			"name": "listedTokenIds",
			"outputs": [
				{
					"internalType": "uint256",
					"name": "",
					"type": "uint256"
				}
			],
			"stateMutability": "view",
			"type": "function"
		},
		{
			"inputs": [
				{
					"internalType": "uint256",
					"name": "_tokenId",
					"type": "uint256"
				},
				{
					"internalType": "uint256",
					"name": "_floorPrice",
					"type": "uint256"
				},
				{
					"internalType": "enum NFTMarketplace.SaleType",
					"name": "saleType",
					"type": "uint8"
				}
			],
			"name": "modifySale",
			"outputs": [],
			"stateMutability": "nonpayable",
			"type": "function"
		},
		{
			"inputs": [],
			"name": "nftContract",
			"outputs": [
				{
					"internalType": "contract ERC721",
					"name": "",
					"type": "address"
				}
			],
			"stateMutability": "view",
			"type": "function"
		},
		{
			"inputs": [],
			"name": "owner",
			"outputs": [
				{
					"internalType": "address",
					"name": "",
					"type": "address"
				}
			],
			"stateMutability": "view",
			"type": "function"
		},
		{
			"inputs": [
				{
					"internalType": "uint256",
					"name": "_feePercentage",
					"type": "uint256"
				}
			],
			"name": "setFeePercentage",
			"outputs": [],
			"stateMutability": "nonpayable",
			"type": "function"
		},
		{
			"inputs": [
				{
					"internalType": "address",
					"name": "",
					"type": "address"
				},
				{
					"internalType": "uint256",
					"name": "",
					"type": "uint256"
				}
			],
			"name": "successfullyBuy",
			"outputs": [
				{
					"internalType": "uint256",
					"name": "",
					"type": "uint256"
				}
			],
			"stateMutability": "view",
			"type": "function"
		},
		{
			"inputs": [
				{
					"internalType": "uint256",
					"name": "",
					"type": "uint256"
				}
			],
			"name": "tokenIdToSale",
			"outputs": [
				{
					"internalType": "uint256",
					"name": "tokenId",
					"type": "uint256"
				},
				{
					"internalType": "address",
					"name": "seller",
					"type": "address"
				},
				{
					"internalType": "uint256",
					"name": "floorPrice",
					"type": "uint256"
				},
				{
					"internalType": "bool",
					"name": "active",
					"type": "bool"
				},
				{
					"internalType": "uint256",
					"name": "endAt",
					"type": "uint256"
				},
				{
					"internalType": "enum NFTMarketplace.SaleType",
					"name": "SaleType",
					"type": "uint8"
				}
			],
			"stateMutability": "view",
			"type": "function"
		},
		{
			"inputs": [],
			"name": "withdrawFunds",
			"outputs": [],
			"stateMutability": "nonpayable",
			"type": "function"
		}
	],
	"bytecode": "0x60806040523480156200001157600080fd5b506040516200337338038062003373833981810160405281019062000037919062000130565b336000806101000a81548173ffffffffffffffffffffffffffffffffffffffff021916908373ffffffffffffffffffffffffffffffffffffffff1602179055506001808190555080600560006101000a81548173ffffffffffffffffffffffffffffffffffffffff021916908373ffffffffffffffffffffffffffffffffffffffff1602179055505062000162565b600080fd5b600073ffffffffffffffffffffffffffffffffffffffff82169050919050565b6000620000f882620000cb565b9050919050565b6200010a81620000eb565b81146200011657600080fd5b50565b6000815190506200012a81620000ff565b92915050565b600060208284031215620001495762000148620000c6565b5b6000620001598482850162000119565b91505092915050565b61320180620001726000396000f3fe6080604052600436106100fe5760003560e01c8063ae06c1b711610095578063d56d229d11610064578063d56d229d14610317578063d96a094a14610342578063e6a3f7a41461035e578063e8d91ff614610387578063f89805e1146103c5576100fe565b8063ae06c1b71461025f578063b6feadc814610288578063b9a2de3a146102c5578063bd94b005146102ee576100fe565b806347a0d79c116100d157806347a0d79c146101a357806379215726146101cc5780638da5cb5b14610209578063a001ecdd14610234576100fe565b806324600fc3146101035780632ba996a51461011a57806338644c5e14610145578063454a2ab314610187575b600080fd5b34801561010f57600080fd5b50610118610402565b005b34801561012657600080fd5b5061012f6104ff565b60405161013c91906123c1565b60405180910390f35b34801561015157600080fd5b5061016c60048036038101906101679190612414565b6107ad565b60405161017e9695949392919061247d565b60405180910390f35b6101a1600480360381019061019c9190612414565b610823565b005b3480156101af57600080fd5b506101ca60048036038101906101c59190612503565b610c89565b005b3480156101d857600080fd5b506101f360048036038101906101ee9190612582565b610fbb565b60405161020091906125c2565b60405180910390f35b34801561021557600080fd5b5061021e610fec565b60405161022b91906125dd565b60405180910390f35b34801561024057600080fd5b50610249611010565b60405161025691906125c2565b60405180910390f35b34801561026b57600080fd5b5061028660048036038101906102819190612414565b611016565b005b34801561029457600080fd5b506102af60048036038101906102aa9190612414565b6110f2565b6040516102bc91906125c2565b60405180910390f35b3480156102d157600080fd5b506102ec60048036038101906102e79190612414565b611116565b005b3480156102fa57600080fd5b5061031560048036038101906103109190612414565b6114af565b005b34801561032357600080fd5b5061032c61171a565b6040516103399190612657565b60405180910390f35b61035c60048036038101906103579190612414565b611740565b005b34801561036a57600080fd5b5061038560048036038101906103809190612672565b611c5e565b005b34801561039357600080fd5b506103ae60048036038101906103a991906126d9565b611f6e565b6040516103bc929190612719565b60405180910390f35b3480156103d157600080fd5b506103ec60048036038101906103e79190612742565b611fcf565b6040516103f9919061281e565b60405180910390f35b60008054906101000a900473ffffffffffffffffffffffffffffffffffffffff1673ffffffffffffffffffffffffffffffffffffffff163373ffffffffffffffffffffffffffffffffffffffff1614610490576040517f08c379a0000000000000000000000000000000000000000000000000000000008152600401610487906128c3565b60405180910390fd5b600047905060008054906101000a900473ffffffffffffffffffffffffffffffffffffffff1673ffffffffffffffffffffffffffffffffffffffff166108fc829081150290604051600060405180830381858888f193505050501580156104fb573d6000803e3d6000fd5b5050565b6060600060068054905067ffffffffffffffff811115610522576105216128e3565b5b60405190808252806020026020018201604052801561055b57816020015b61054861214b565b8152602001906001900390816105405790505b50905060005b6006805490508110156107a55760006006828154811061058457610583612912565b5b906000526020600020015490506000600360008381526020019081526020016000206040518060c0016040529081600082015481526020016001820160009054906101000a900473ffffffffffffffffffffffffffffffffffffffff1673ffffffffffffffffffffffffffffffffffffffff1673ffffffffffffffffffffffffffffffffffffffff168152602001600282015481526020016003820160009054906101000a900460ff16151515158152602001600482015481526020016005820160009054906101000a900460ff1660018111156106655761066461224c565b5b60018111156106775761067661224c565b5b815250509050428160800151111561079057600360008381526020019081526020016000206040518060c0016040529081600082015481526020016001820160009054906101000a900473ffffffffffffffffffffffffffffffffffffffff1673ffffffffffffffffffffffffffffffffffffffff1673ffffffffffffffffffffffffffffffffffffffff168152602001600282015481526020016003820160009054906101000a900460ff16151515158152602001600482015481526020016005820160009054906101000a900460ff16600181111561075b5761075a61224c565b5b600181111561076d5761076c61224c565b5b8152505084848151811061078457610783612912565b5b60200260200101819052505b5050808061079d90612970565b915050610561565b508091505090565b60036020528060005260406000206000915090508060000154908060010160009054906101000a900473ffffffffffffffffffffffffffffffffffffffff16908060020154908060030160009054906101000a900460ff16908060040154908060050160009054906101000a900460ff16905086565b60006003600083815260200190815260200160002090508060030160009054906101000a900460ff1661088b576040517f08c379a000000000000000000000000000000000000000000000000000000000815260040161088290612a05565b60405180910390fd5b80600401544211156108d2576040517f08c379a00000000000000000000000000000000000000000000000000000000081526004016108c990612a71565b60405180910390fd5b80600201543411610918576040517f08c379a000000000000000000000000000000000000000000000000000000000815260040161090f90612b03565b60405180910390fd5b6000600181111561092c5761092b61224c565b5b8160050160009054906101000a900460ff1660018111156109505761094f61224c565b5b14610990576040517f08c379a000000000000000000000000000000000000000000000000000000000815260040161098790612b95565b60405180910390fd5b600060026000848152602001908152602001600020805490501415610aba57348160020181905550338160010160006101000a81548173ffffffffffffffffffffffffffffffffffffffff021916908373ffffffffffffffffffffffffffffffffffffffff1602179055506002600083815260200190815260200160002060405180604001604052803373ffffffffffffffffffffffffffffffffffffffff16815260200134815250908060018154018082558091505060019003906000526020600020906002020160009091909190915060008201518160000160006101000a81548173ffffffffffffffffffffffffffffffffffffffff021916908373ffffffffffffffffffffffffffffffffffffffff160217905550602082015181600101555050610c36565b60008160010160009054906101000a900473ffffffffffffffffffffffffffffffffffffffff1690508073ffffffffffffffffffffffffffffffffffffffff166108fc83600201549081150290604051600060405180830381858888f19350505050158015610b2d573d6000803e3d6000fd5b50348260020181905550338260010160006101000a81548173ffffffffffffffffffffffffffffffffffffffff021916908373ffffffffffffffffffffffffffffffffffffffff1602179055506002600084815260200190815260200160002060405180604001604052803373ffffffffffffffffffffffffffffffffffffffff16815260200134815250908060018154018082558091505060019003906000526020600020906002020160009091909190915060008201518160000160006101000a81548173ffffffffffffffffffffffffffffffffffffffff021916908373ffffffffffffffffffffffffffffffffffffffff160217905550602082015181600101555050505b3373ffffffffffffffffffffffffffffffffffffffff16827f0e54eff26401bf69b81b26f60bd85ef47f5d85275c1d268d84f68d6897431c4734604051610c7d91906125c2565b60405180910390a35050565b3373ffffffffffffffffffffffffffffffffffffffff16600560009054906101000a900473ffffffffffffffffffffffffffffffffffffffff1673ffffffffffffffffffffffffffffffffffffffff16636352211e856040518263ffffffff1660e01b8152600401610cfb91906125c2565b60206040518083038186803b158015610d1357600080fd5b505afa158015610d27573d6000803e3d6000fd5b505050506040513d601f19601f82011682018060405250810190610d4b9190612bca565b73ffffffffffffffffffffffffffffffffffffffff1614610da1576040517f08c379a0000000000000000000000000000000000000000000000000000000008152600401610d9890612c69565b60405180910390fd5b60008211610de4576040517f08c379a0000000000000000000000000000000000000000000000000000000008152600401610ddb90612cd5565b60405180910390fd5b3373ffffffffffffffffffffffffffffffffffffffff16837fd9e530acb8429c8e5337d9d3230e4cc7d742e32c2fc8d76608c19f2e1701ed0460405160405180910390a36000600360008581526020019081526020016000206004015490506040518060c001604052808581526020013373ffffffffffffffffffffffffffffffffffffffff168152602001848152602001600115158152602001828152602001836001811115610e9857610e9761224c565b5b815250600360008681526020019081526020016000206000820151816000015560208201518160010160006101000a81548173ffffffffffffffffffffffffffffffffffffffff021916908373ffffffffffffffffffffffffffffffffffffffff1602179055506040820151816002015560608201518160030160006101000a81548160ff0219169083151502179055506080820151816004015560a08201518160050160006101000a81548160ff02191690836001811115610f5e57610f5d61224c565b5b02179055509050503373ffffffffffffffffffffffffffffffffffffffff16847fa29262303591d48ce94646a46b652916ce782073349bb5dc261ac4c5237d939785604051610fad91906125c2565b60405180910390a350505050565b60046020528160005260406000208181548110610fd757600080fd5b90600052602060002001600091509150505481565b60008054906101000a900473ffffffffffffffffffffffffffffffffffffffff1681565b60015481565b60008054906101000a900473ffffffffffffffffffffffffffffffffffffffff1673ffffffffffffffffffffffffffffffffffffffff163373ffffffffffffffffffffffffffffffffffffffff16146110a4576040517f08c379a000000000000000000000000000000000000000000000000000000000815260040161109b906128c3565b60405180910390fd5b60058111156110e8576040517f08c379a00000000000000000000000000000000000000000000000000000000081526004016110df90612d67565b60405180910390fd5b8060018190555050565b6006818154811061110257600080fd5b906000526020600020016000915090505481565b60008054906101000a900473ffffffffffffffffffffffffffffffffffffffff1673ffffffffffffffffffffffffffffffffffffffff163373ffffffffffffffffffffffffffffffffffffffff16146111a4576040517f08c379a000000000000000000000000000000000000000000000000000000000815260040161119b906128c3565b60405180910390fd5b60006003600083815260200190815260200160002090508060030160009054906101000a900460ff1661120c576040517f08c379a000000000000000000000000000000000000000000000000000000000815260040161120390612a05565b60405180910390fd5b8060040154421015611253576040517f08c379a000000000000000000000000000000000000000000000000000000000815260040161124a90612dd3565b60405180910390fd5b60008160010160009054906101000a900473ffffffffffffffffffffffffffffffffffffffff1690506000826002015490506000600560009054906101000a900473ffffffffffffffffffffffffffffffffffffffff1673ffffffffffffffffffffffffffffffffffffffff16636352211e866040518263ffffffff1660e01b81526004016112e291906125c2565b60206040518083038186803b1580156112fa57600080fd5b505afa15801561130e573d6000803e3d6000fd5b505050506040513d601f19601f820116820180604052508101906113329190612bca565b9050600560009054906101000a900473ffffffffffffffffffffffffffffffffffffffff1673ffffffffffffffffffffffffffffffffffffffff166323b872dd8285886040518463ffffffff1660e01b815260040161139393929190612e14565b600060405180830381600087803b1580156113ad57600080fd5b505af11580156113c1573d6000803e3d6000fd5b5050505060006064600154846113d79190612e4b565b6113e19190612ed4565b9050600081846113f19190612f05565b90508273ffffffffffffffffffffffffffffffffffffffff166108fc829081150290604051600060405180830381858888f19350505050158015611439573d6000803e3d6000fd5b5060008660030160006101000a81548160ff0219169083151502179055508473ffffffffffffffffffffffffffffffffffffffff16877fd2aa34a4fdbbc6dff6a3e56f46e0f3ae2a31d7785ff3487aa5c95c642acea5018660405161149e91906125c2565b60405180910390a350505050505050565b60006003600083815260200190815260200160002090508060030160009054906101000a900460ff16611517576040517f08c379a000000000000000000000000000000000000000000000000000000000815260040161150e90612f85565b60405180910390fd5b3373ffffffffffffffffffffffffffffffffffffffff16600560009054906101000a900473ffffffffffffffffffffffffffffffffffffffff1673ffffffffffffffffffffffffffffffffffffffff16636352211e846040518263ffffffff1660e01b815260040161158991906125c2565b60206040518083038186803b1580156115a157600080fd5b505afa1580156115b5573d6000803e3d6000fd5b505050506040513d601f19601f820116820180604052508101906115d99190612bca565b73ffffffffffffffffffffffffffffffffffffffff161461162f576040517f08c379a000000000000000000000000000000000000000000000000000000000815260040161162690613017565b60405180910390fd5b600360008381526020019081526020016000206000808201600090556001820160006101000a81549073ffffffffffffffffffffffffffffffffffffffff021916905560028201600090556003820160006101000a81549060ff021916905560048201600090556005820160006101000a81549060ff0219169055505060008160030160006101000a81548160ff0219169083151502179055506116d282612066565b3373ffffffffffffffffffffffffffffffffffffffff16827fd9e530acb8429c8e5337d9d3230e4cc7d742e32c2fc8d76608c19f2e1701ed0460405160405180910390a35050565b600560009054906101000a900473ffffffffffffffffffffffffffffffffffffffff1681565b60006003600083815260200190815260200160002090508060030160009054906101000a900460ff166117a8576040517f08c379a000000000000000000000000000000000000000000000000000000000815260040161179f90612f85565b60405180910390fd5b80600201543410156117ef576040517f08c379a00000000000000000000000000000000000000000000000000000000081526004016117e690613083565b60405180910390fd5b4281600401541015611836576040517f08c379a000000000000000000000000000000000000000000000000000000000815260040161182d906130ef565b60405180910390fd5b60008160010160009054906101000a900473ffffffffffffffffffffffffffffffffffffffff1690506000606460015484600201546118759190612e4b565b61187f9190612ed4565b905060008360010160009054906101000a900473ffffffffffffffffffffffffffffffffffffffff169050600360008681526020019081526020016000206000808201600090556001820160006101000a81549073ffffffffffffffffffffffffffffffffffffffff021916905560028201600090556003820160006101000a81549060ff021916905560048201600090556005820160006101000a81549060ff02191690555050600082346119359190612f05565b9050600560009054906101000a900473ffffffffffffffffffffffffffffffffffffffff1673ffffffffffffffffffffffffffffffffffffffff166323b872dd8333896040518463ffffffff1660e01b81526004016119969392919061310f565b600060405180830381600087803b1580156119b057600080fd5b505af11580156119c4573d6000803e3d6000fd5b505050508373ffffffffffffffffffffffffffffffffffffffff166108fc829081150290604051600060405180830381858888f19350505050158015611a0e573d6000803e3d6000fd5b503073ffffffffffffffffffffffffffffffffffffffff168273ffffffffffffffffffffffffffffffffffffffff1614611b62576000600460008473ffffffffffffffffffffffffffffffffffffffff1673ffffffffffffffffffffffffffffffffffffffff168152602001908152602001600020905060005b8180549050811015611b5f5787828281548110611aa857611aa7612912565b5b90600052602060002001541415611b4c5760018280549050611aca9190612f05565b8114611b20578160018380549050611ae29190612f05565b81548110611af357611af2612912565b5b9060005260206000200154828281548110611b1157611b10612912565b5b90600052602060002001819055505b81805480611b3157611b30613146565b5b60019003818190600052602060002001600090559055611b5f565b8080611b5790612970565b915050611a88565b50505b600460003373ffffffffffffffffffffffffffffffffffffffff1673ffffffffffffffffffffffffffffffffffffffff1681526020019081526020016000208690806001815401808255809150506001900390600052602060002001600090919091909150553373ffffffffffffffffffffffffffffffffffffffff168560010160009054906101000a900473ffffffffffffffffffffffffffffffffffffffff1673ffffffffffffffffffffffffffffffffffffffff16877f64b02497e7e7114dfbf373decb8fc827c41794498699d8742beb61a0038f6c5b8860020154604051611c4e91906125c2565b60405180910390a4505050505050565b3373ffffffffffffffffffffffffffffffffffffffff16600560009054906101000a900473ffffffffffffffffffffffffffffffffffffffff1673ffffffffffffffffffffffffffffffffffffffff16636352211e866040518263ffffffff1660e01b8152600401611cd091906125c2565b60206040518083038186803b158015611ce857600080fd5b505afa158015611cfc573d6000803e3d6000fd5b505050506040513d601f19601f82011682018060405250810190611d209190612bca565b73ffffffffffffffffffffffffffffffffffffffff1614611d76576040517f08c379a0000000000000000000000000000000000000000000000000000000008152600401611d6d90612c69565b60405180910390fd5b60008311611db9576040517f08c379a0000000000000000000000000000000000000000000000000000000008152600401611db090612cd5565b60405180910390fd5b6040518060c001604052808581526020013373ffffffffffffffffffffffffffffffffffffffff1681526020018481526020016001151581526020018342611e019190613175565b8152602001826001811115611e1957611e1861224c565b5b815250600360008681526020019081526020016000206000820151816000015560208201518160010160006101000a81548173ffffffffffffffffffffffffffffffffffffffff021916908373ffffffffffffffffffffffffffffffffffffffff1602179055506040820151816002015560608201518160030160006101000a81548160ff0219169083151502179055506080820151816004015560a08201518160050160006101000a81548160ff02191690836001811115611edf57611ede61224c565b5b0217905550905050611ef084612066565b60068490806001815401808255809150506001900390600052602060002001600090919091909150553373ffffffffffffffffffffffffffffffffffffffff16847fa29262303591d48ce94646a46b652916ce782073349bb5dc261ac4c5237d939785604051611f6091906125c2565b60405180910390a350505050565b60026020528160005260406000208181548110611f8a57600080fd5b9060005260206000209060020201600091509150508060000160009054906101000a900473ffffffffffffffffffffffffffffffffffffffff16908060010154905082565b6060600460008373ffffffffffffffffffffffffffffffffffffffff1673ffffffffffffffffffffffffffffffffffffffff16815260200190815260200160002080548060200260200160405190810160405280929190818152602001828054801561205a57602002820191906000526020600020905b815481526020019060010190808311612046575b50505050509050919050565b60005b60068054905081101561214757816006828154811061208b5761208a612912565b5b906000526020600020015414156121345760016006805490506120ae9190612f05565b811461210757600660016006805490506120c89190612f05565b815481106120d9576120d8612912565b5b9060005260206000200154600682815481106120f8576120f7612912565b5b90600052602060002001819055505b600680548061211957612118613146565b5b60019003818190600052602060002001600090559055612147565b808061213f90612970565b915050612069565b5050565b6040518060c0016040528060008152602001600073ffffffffffffffffffffffffffffffffffffffff1681526020016000815260200160001515815260200160008152602001600060018111156121a5576121a461224c565b5b81525090565b600081519050919050565b600082825260208201905092915050565b6000819050602082019050919050565b6000819050919050565b6121ea816121d7565b82525050565b600073ffffffffffffffffffffffffffffffffffffffff82169050919050565b600061221b826121f0565b9050919050565b61222b81612210565b82525050565b60008115159050919050565b61224681612231565b82525050565b7f4e487b7100000000000000000000000000000000000000000000000000000000600052602160045260246000fd5b6002811061228c5761228b61224c565b5b50565b600081905061229d8261227b565b919050565b60006122ad8261228f565b9050919050565b6122bd816122a2565b82525050565b60c0820160008201516122d960008501826121e1565b5060208201516122ec6020850182612222565b5060408201516122ff60408501826121e1565b506060820151612312606085018261223d565b50608082015161232560808501826121e1565b5060a082015161233860a08501826122b4565b50505050565b600061234a83836122c3565b60c08301905092915050565b6000602082019050919050565b600061236e826121ab565b61237881856121b6565b9350612383836121c7565b8060005b838110156123b457815161239b888261233e565b97506123a683612356565b925050600181019050612387565b5085935050505092915050565b600060208201905081810360008301526123db8184612363565b905092915050565b600080fd5b6123f1816121d7565b81146123fc57600080fd5b50565b60008135905061240e816123e8565b92915050565b60006020828403121561242a576124296123e3565b5b6000612438848285016123ff565b91505092915050565b61244a816121d7565b82525050565b61245981612210565b82525050565b61246881612231565b82525050565b612477816122a2565b82525050565b600060c0820190506124926000830189612441565b61249f6020830188612450565b6124ac6040830187612441565b6124b9606083018661245f565b6124c66080830185612441565b6124d360a083018461246e565b979650505050505050565b600281106124eb57600080fd5b50565b6000813590506124fd816124de565b92915050565b60008060006060848603121561251c5761251b6123e3565b5b600061252a868287016123ff565b935050602061253b868287016123ff565b925050604061254c868287016124ee565b9150509250925092565b61255f81612210565b811461256a57600080fd5b50565b60008135905061257c81612556565b92915050565b60008060408385031215612599576125986123e3565b5b60006125a78582860161256d565b92505060206125b8858286016123ff565b9150509250929050565b60006020820190506125d76000830184612441565b92915050565b60006020820190506125f26000830184612450565b92915050565b6000819050919050565b600061261d612618612613846121f0565b6125f8565b6121f0565b9050919050565b600061262f82612602565b9050919050565b600061264182612624565b9050919050565b61265181612636565b82525050565b600060208201905061266c6000830184612648565b92915050565b6000806000806080858703121561268c5761268b6123e3565b5b600061269a878288016123ff565b94505060206126ab878288016123ff565b93505060406126bc878288016123ff565b92505060606126cd878288016124ee565b91505092959194509250565b600080604083850312156126f0576126ef6123e3565b5b60006126fe858286016123ff565b925050602061270f858286016123ff565b9150509250929050565b600060408201905061272e6000830185612450565b61273b6020830184612441565b9392505050565b600060208284031215612758576127576123e3565b5b60006127668482850161256d565b91505092915050565b600081519050919050565b600082825260208201905092915050565b6000819050602082019050919050565b60006127a783836121e1565b60208301905092915050565b6000602082019050919050565b60006127cb8261276f565b6127d5818561277a565b93506127e08361278b565b8060005b838110156128115781516127f8888261279b565b9750612803836127b3565b9250506001810190506127e4565b5085935050505092915050565b6000602082019050818103600083015261283881846127c0565b905092915050565b600082825260208201905092915050565b7f4f6e6c7920636f6e7472616374206f776e65722063616e2063616c6c2074686960008201527f732066756e6374696f6e00000000000000000000000000000000000000000000602082015250565b60006128ad602a83612840565b91506128b882612851565b604082019050919050565b600060208201905081810360008301526128dc816128a0565b9050919050565b7f4e487b7100000000000000000000000000000000000000000000000000000000600052604160045260246000fd5b7f4e487b7100000000000000000000000000000000000000000000000000000000600052603260045260246000fd5b7f4e487b7100000000000000000000000000000000000000000000000000000000600052601160045260246000fd5b600061297b826121d7565b91507fffffffffffffffffffffffffffffffffffffffffffffffffffffffffffffffff8214156129ae576129ad612941565b5b600182019050919050565b7f41756374696f6e206973206e6f74206163746976650000000000000000000000600082015250565b60006129ef601583612840565b91506129fa826129b9565b602082019050919050565b60006020820190508181036000830152612a1e816129e2565b9050919050565b7f41756374696f6e2068617320656e646564000000000000000000000000000000600082015250565b6000612a5b601183612840565b9150612a6682612a25565b602082019050919050565b60006020820190508181036000830152612a8a81612a4e565b9050919050565b7f426964206d75737420626520686967686572207468616e2074686520666c6f6f60008201527f7220707269636500000000000000000000000000000000000000000000000000602082015250565b6000612aed602783612840565b9150612af882612a91565b604082019050919050565b60006020820190508181036000830152612b1c81612ae0565b9050919050565b7f746f6b656e696420617661696c61626c6520666f72206469726563742073616c60008201527f65206f6e6c790000000000000000000000000000000000000000000000000000602082015250565b6000612b7f602683612840565b9150612b8a82612b23565b604082019050919050565b60006020820190508181036000830152612bae81612b72565b9050919050565b600081519050612bc481612556565b92915050565b600060208284031215612be057612bdf6123e3565b5b6000612bee84828501612bb5565b91505092915050565b7f4f6e6c792074686520746f6b656e206f776e65722063616e206372656174652060008201527f612073616c650000000000000000000000000000000000000000000000000000602082015250565b6000612c53602683612840565b9150612c5e82612bf7565b604082019050919050565b60006020820190508181036000830152612c8281612c46565b9050919050565b7f5072696365206d7573742062652067726561746572207468616e207a65726f00600082015250565b6000612cbf601f83612840565b9150612cca82612c89565b602082019050919050565b60006020820190508181036000830152612cee81612cb2565b9050919050565b7f4665652070657263656e74616765206d757374206265206c657373207468616e60008201527f206f7220657175616c20746f2035000000000000000000000000000000000000602082015250565b6000612d51602e83612840565b9150612d5c82612cf5565b604082019050919050565b60006020820190508181036000830152612d8081612d44565b9050919050565b7f41756374696f6e20686173206e6f7420656e6465642079657400000000000000600082015250565b6000612dbd601983612840565b9150612dc882612d87565b602082019050919050565b60006020820190508181036000830152612dec81612db0565b9050919050565b6000612dfe82612624565b9050919050565b612e0e81612df3565b82525050565b6000606082019050612e296000830186612e05565b612e366020830185612450565b612e436040830184612441565b949350505050565b6000612e56826121d7565b9150612e61836121d7565b9250817fffffffffffffffffffffffffffffffffffffffffffffffffffffffffffffffff0483118215151615612e9a57612e99612941565b5b828202905092915050565b7f4e487b7100000000000000000000000000000000000000000000000000000000600052601260045260246000fd5b6000612edf826121d7565b9150612eea836121d7565b925082612efa57612ef9612ea5565b5b828204905092915050565b6000612f10826121d7565b9150612f1b836121d7565b925082821015612f2e57612f2d612941565b5b828203905092915050565b7f53616c65206973206e6f74206163746976650000000000000000000000000000600082015250565b6000612f6f601283612840565b9150612f7a82612f39565b602082019050919050565b60006020820190508181036000830152612f9e81612f62565b9050919050565b7f4f6e6c792074686520746f6b656e206f776e65722063616e2063616e63656c2060008201527f612073616c650000000000000000000000000000000000000000000000000000602082015250565b6000613001602683612840565b915061300c82612fa5565b604082019050919050565b6000602082019050818103600083015261303081612ff4565b9050919050565b7f496e73756666696369656e74207061796d656e74000000000000000000000000600082015250565b600061306d601483612840565b915061307882613037565b602082019050919050565b6000602082019050818103600083015261309c81613060565b9050919050565b7f73616c6520656e64656400000000000000000000000000000000000000000000600082015250565b60006130d9600a83612840565b91506130e4826130a3565b602082019050919050565b60006020820190508181036000830152613108816130cc565b9050919050565b60006060820190506131246000830186612450565b6131316020830185612450565b61313e6040830184612441565b949350505050565b7f4e487b7100000000000000000000000000000000000000000000000000000000600052603160045260246000fd5b6000613180826121d7565b915061318b836121d7565b9250827fffffffffffffffffffffffffffffffffffffffffffffffffffffffffffffffff038211156131c0576131bf612941565b5b82820190509291505056fea264697066735822122070b02d39426974292865e9531e68f196957fc4de2919a1ff033850c8c15353de64736f6c63430008090033",
	"linkReferences": {},
	"deployedLinkReferences": {}
}