{
  "_format": "hh-sol-artifact-1",
  "contractName": "NFTMarketplace",
  "sourceName": "contracts/Marketplace.sol",
  "abi": [
    {
      "inputs": [
        {
          "internalType": "address",
          "name": "_nftContract",
          "type": "address"
        }
      ],
      "stateMutability": "nonpayable",
      "type": "constructor"
    },
    {
      "anonymous": false,
      "inputs": [
        {
          "indexed": true,
          "internalType": "uint256",
          "name": "tokenId",
          "type": "uint256"
        },
        {
          "indexed": true,
          "internalType": "address",
          "name": "highestBidder",
          "type": "address"
        },
        {
          "indexed": false,
          "internalType": "uint256",
          "name": "winningBid",
          "type": "uint256"
        }
      ],
      "name": "AuctionEnded",
      "type": "event"
    },
    {
      "anonymous": false,
      "inputs": [
        {
          "indexed": true,
          "internalType": "uint256",
          "name": "tokenId",
          "type": "uint256"
        },
        {
          "indexed": true,
          "internalType": "uint256",
          "name": "floorPrice",
          "type": "uint256"
        },
        {
          "indexed": true,
          "internalType": "uint256",
          "name": "endAt",
          "type": "uint256"
        }
      ],
      "name": "AuctionStarted",
      "type": "event"
    },
    {
      "anonymous": false,
      "inputs": [
        {
          "indexed": true,
          "internalType": "uint256",
          "name": "tokenId",
          "type": "uint256"
        },
        {
          "indexed": true,
          "internalType": "address",
          "name": "bidder",
          "type": "address"
        },
        {
          "indexed": false,
          "internalType": "uint256",
          "name": "amount",
          "type": "uint256"
        }
      ],
      "name": "BidPlaced",
      "type": "event"
    },
    {
      "anonymous": false,
      "inputs": [
        {
          "indexed": true,
          "internalType": "uint256",
          "name": "tokenId",
          "type": "uint256"
        },
        {
          "indexed": true,
          "internalType": "address",
          "name": "seller",
          "type": "address"
        }
      ],
      "name": "SaleCancelled",
      "type": "event"
    },
    {
      "anonymous": false,
      "inputs": [
        {
          "indexed": true,
          "internalType": "uint256",
          "name": "tokenId",
          "type": "uint256"
        },
        {
          "indexed": true,
          "internalType": "address",
          "name": "seller",
          "type": "address"
        },
        {
          "indexed": false,
          "internalType": "uint256",
          "name": "price",
          "type": "uint256"
        }
      ],
      "name": "SaleCreated",
      "type": "event"
    },
    {
      "anonymous": false,
      "inputs": [
        {
          "indexed": true,
          "internalType": "uint256",
          "name": "tokenId",
          "type": "uint256"
        },
        {
          "indexed": true,
          "internalType": "address",
          "name": "seller",
          "type": "address"
        },
        {
          "indexed": true,
          "internalType": "address",
          "name": "buyer",
          "type": "address"
        },
        {
          "indexed": false,
          "internalType": "uint256",
          "name": "price",
          "type": "uint256"
        }
      ],
      "name": "SaleSuccessful",
      "type": "event"
    },
    {
      "inputs": [
        {
          "internalType": "uint256",
          "name": "tokenId",
          "type": "uint256"
        }
      ],
      "name": "bid",
      "outputs": [],
      "stateMutability": "payable",
      "type": "function"
    },
    {
      "inputs": [
        {
          "internalType": "uint256",
          "name": "_tokenId",
          "type": "uint256"
        }
      ],
      "name": "buy",
      "outputs": [],
      "stateMutability": "payable",
      "type": "function"
    },
    {
      "inputs": [
        {
          "internalType": "uint256",
          "name": "",
          "type": "uint256"
        },
        {
          "internalType": "uint256",
          "name": "",
          "type": "uint256"
        }
      ],
      "name": "buyRequest",
      "outputs": [
        {
          "internalType": "address",
          "name": "requester",
          "type": "address"
        },
        {
          "internalType": "uint256",
          "name": "amount",
          "type": "uint256"
        }
      ],
      "stateMutability": "view",
      "type": "function"
    },
    {
      "inputs": [
        {
          "internalType": "uint256",
          "name": "_tokenId",
          "type": "uint256"
        }
      ],
      "name": "cancelSale",
      "outputs": [],
      "stateMutability": "nonpayable",
      "type": "function"
    },
    {
      "inputs": [],
      "name": "check",
      "outputs": [
        {
          "internalType": "uint256",
          "name": "",
          "type": "uint256"
        }
      ],
      "stateMutability": "view",
      "type": "function"
    },
    {
      "inputs": [
        {
          "internalType": "uint256",
          "name": "_tokenId",
          "type": "uint256"
        },
        {
          "internalType": "uint256",
          "name": "_price",
          "type": "uint256"
        },
        {
          "internalType": "uint256",
          "name": "_endAt",
          "type": "uint256"
        },
        {
          "internalType": "enum NFTMarketplace.SaleType",
          "name": "saleType",
          "type": "uint8"
        }
      ],
      "name": "createSale",
      "outputs": [],
      "stateMutability": "nonpayable",
      "type": "function"
    },
    {
      "inputs": [
        {
          "internalType": "uint256",
          "name": "tokenId",
          "type": "uint256"
        }
      ],
      "name": "endAuction",
      "outputs": [],
      "stateMutability": "nonpayable",
      "type": "function"
    },
    {
      "inputs": [],
      "name": "feePercentage",
      "outputs": [
        {
          "internalType": "uint256",
          "name": "",
          "type": "uint256"
        }
      ],
      "stateMutability": "view",
      "type": "function"
    },
    {
      "inputs": [
        {
          "internalType": "uint256",
          "name": "_tokenId",
          "type": "uint256"
        },
        {
          "internalType": "uint256",
          "name": "_floorPrice",
          "type": "uint256"
        },
        {
          "internalType": "enum NFTMarketplace.SaleType",
          "name": "saleType",
          "type": "uint8"
        }
      ],
      "name": "modifySale",
      "outputs": [],
      "stateMutability": "nonpayable",
      "type": "function"
    },
    {
      "inputs": [],
      "name": "nftContract",
      "outputs": [
        {
          "internalType": "contract ERC721",
          "name": "",
          "type": "address"
        }
      ],
      "stateMutability": "view",
      "type": "function"
    },
    {
      "inputs": [],
      "name": "owner",
      "outputs": [
        {
          "internalType": "address",
          "name": "",
          "type": "address"
        }
      ],
      "stateMutability": "view",
      "type": "function"
    },
    {
      "inputs": [
        {
          "internalType": "uint256",
          "name": "_feePercentage",
          "type": "uint256"
        }
      ],
      "name": "setFeePercentage",
      "outputs": [],
      "stateMutability": "nonpayable",
      "type": "function"
    },
    {
      "inputs": [],
      "name": "startAt",
      "outputs": [
        {
          "internalType": "uint256",
          "name": "",
          "type": "uint256"
        }
      ],
      "stateMutability": "view",
      "type": "function"
    },
    {
      "inputs": [
        {
          "internalType": "uint256",
          "name": "",
          "type": "uint256"
        }
      ],
      "name": "tokenIdToSale",
      "outputs": [
        {
          "internalType": "uint256",
          "name": "tokenId",
          "type": "uint256"
        },
        {
          "internalType": "address",
          "name": "seller",
          "type": "address"
        },
        {
          "internalType": "uint256",
          "name": "floorPrice",
          "type": "uint256"
        },
        {
          "internalType": "bool",
          "name": "active",
          "type": "bool"
        },
        {
          "internalType": "uint256",
          "name": "endAt",
          "type": "uint256"
        },
        {
          "internalType": "enum NFTMarketplace.SaleType",
          "name": "SaleType",
          "type": "uint8"
        }
      ],
      "stateMutability": "view",
      "type": "function"
    },
    {
      "inputs": [],
      "name": "withdrawFunds",
      "outputs": [],
      "stateMutability": "nonpayable",
      "type": "function"
    }
  ],
  "bytecode": "0x60806040523480156200001157600080fd5b50604051620028c0380380620028c0833981810160405281019062000037919062000130565b336000806101000a81548173ffffffffffffffffffffffffffffffffffffffff021916908373ffffffffffffffffffffffffffffffffffffffff1602179055506001808190555080600660006101000a81548173ffffffffffffffffffffffffffffffffffffffff021916908373ffffffffffffffffffffffffffffffffffffffff1602179055505062000162565b600080fd5b600073ffffffffffffffffffffffffffffffffffffffff82169050919050565b6000620000f882620000cb565b9050919050565b6200010a81620000eb565b81146200011657600080fd5b50565b6000815190506200012a81620000ff565b92915050565b600060208284031215620001495762000148620000c6565b5b6000620001598482850162000119565b91505092915050565b61274e80620001726000396000f3fe6080604052600436106100e85760003560e01c8063ae06c1b71161008a578063d56d229d11610059578063d56d229d146102b2578063d96a094a146102dd578063e6a3f7a4146102f9578063e8d91ff614610322576100e8565b8063ae06c1b71461020c578063b9a2de3a14610235578063bd94b0051461025e578063c744656514610287576100e8565b806347a0d79c116100c657806347a0d79c146101625780638da5cb5b1461018b578063919840ad146101b6578063a001ecdd146101e1576100e8565b806324600fc3146100ed57806338644c5e14610104578063454a2ab314610146575b600080fd5b3480156100f957600080fd5b50610102610360565b005b34801561011057600080fd5b5061012b60048036038101906101269190611b0a565b61045d565b60405161013d96959493929190611c19565b60405180910390f35b610160600480360381019061015b9190611b0a565b6104d3565b005b34801561016e57600080fd5b5061018960048036038101906101849190611c9f565b610939565b005b34801561019757600080fd5b506101a0610c6b565b6040516101ad9190611cf2565b60405180910390f35b3480156101c257600080fd5b506101cb610c8f565b6040516101d89190611d0d565b60405180910390f35b3480156101ed57600080fd5b506101f6610cb2565b6040516102039190611d0d565b60405180910390f35b34801561021857600080fd5b50610233600480360381019061022e9190611b0a565b610cb8565b005b34801561024157600080fd5b5061025c60048036038101906102579190611b0a565b610d94565b005b34801561026a57600080fd5b5061028560048036038101906102809190611b0a565b61112d565b005b34801561029357600080fd5b5061029c61138f565b6040516102a99190611d0d565b60405180910390f35b3480156102be57600080fd5b506102c7611395565b6040516102d49190611d87565b60405180910390f35b6102f760048036038101906102f29190611b0a565b6113bb565b005b34801561030557600080fd5b50610320600480360381019061031b9190611da2565b611720565b005b34801561032e57600080fd5b5061034960048036038101906103449190611e09565b611a6e565b604051610357929190611e49565b60405180910390f35b60008054906101000a900473ffffffffffffffffffffffffffffffffffffffff1673ffffffffffffffffffffffffffffffffffffffff163373ffffffffffffffffffffffffffffffffffffffff16146103ee576040517f08c379a00000000000000000000000000000000000000000000000000000000081526004016103e590611ef5565b60405180910390fd5b600047905060008054906101000a900473ffffffffffffffffffffffffffffffffffffffff1673ffffffffffffffffffffffffffffffffffffffff166108fc829081150290604051600060405180830381858888f19350505050158015610459573d6000803e3d6000fd5b5050565b60056020528060005260406000206000915090508060000154908060010160009054906101000a900473ffffffffffffffffffffffffffffffffffffffff16908060020154908060030160009054906101000a900460ff16908060040154908060050160009054906101000a900460ff16905086565b60006005600083815260200190815260200160002090508060030160009054906101000a900460ff1661053b576040517f08c379a000000000000000000000000000000000000000000000000000000000815260040161053290611f61565b60405180910390fd5b8060040154421115610582576040517f08c379a000000000000000000000000000000000000000000000000000000000815260040161057990611fcd565b60405180910390fd5b806002015434116105c8576040517f08c379a00000000000000000000000000000000000000000000000000000000081526004016105bf9061205f565b60405180910390fd5b600060018111156105dc576105db611ba2565b5b8160050160009054906101000a900460ff166001811115610600576105ff611ba2565b5b14610640576040517f08c379a0000000000000000000000000000000000000000000000000000000008152600401610637906120f1565b60405180910390fd5b60006004600084815260200190815260200160002080549050141561076a57348160020181905550338160010160006101000a81548173ffffffffffffffffffffffffffffffffffffffff021916908373ffffffffffffffffffffffffffffffffffffffff1602179055506004600083815260200190815260200160002060405180604001604052803373ffffffffffffffffffffffffffffffffffffffff16815260200134815250908060018154018082558091505060019003906000526020600020906002020160009091909190915060008201518160000160006101000a81548173ffffffffffffffffffffffffffffffffffffffff021916908373ffffffffffffffffffffffffffffffffffffffff1602179055506020820151816001015550506108e6565b60008160010160009054906101000a900473ffffffffffffffffffffffffffffffffffffffff1690508073ffffffffffffffffffffffffffffffffffffffff166108fc83600201549081150290604051600060405180830381858888f193505050501580156107dd573d6000803e3d6000fd5b50348260020181905550338260010160006101000a81548173ffffffffffffffffffffffffffffffffffffffff021916908373ffffffffffffffffffffffffffffffffffffffff1602179055506004600084815260200190815260200160002060405180604001604052803373ffffffffffffffffffffffffffffffffffffffff16815260200134815250908060018154018082558091505060019003906000526020600020906002020160009091909190915060008201518160000160006101000a81548173ffffffffffffffffffffffffffffffffffffffff021916908373ffffffffffffffffffffffffffffffffffffffff160217905550602082015181600101555050505b3373ffffffffffffffffffffffffffffffffffffffff16827f0e54eff26401bf69b81b26f60bd85ef47f5d85275c1d268d84f68d6897431c473460405161092d9190611d0d565b60405180910390a35050565b3373ffffffffffffffffffffffffffffffffffffffff16600660009054906101000a900473ffffffffffffffffffffffffffffffffffffffff1673ffffffffffffffffffffffffffffffffffffffff16636352211e856040518263ffffffff1660e01b81526004016109ab9190611d0d565b60206040518083038186803b1580156109c357600080fd5b505afa1580156109d7573d6000803e3d6000fd5b505050506040513d601f19601f820116820180604052508101906109fb919061213d565b73ffffffffffffffffffffffffffffffffffffffff1614610a51576040517f08c379a0000000000000000000000000000000000000000000000000000000008152600401610a48906121dc565b60405180910390fd5b60008211610a94576040517f08c379a0000000000000000000000000000000000000000000000000000000008152600401610a8b90612248565b60405180910390fd5b3373ffffffffffffffffffffffffffffffffffffffff16837fd9e530acb8429c8e5337d9d3230e4cc7d742e32c2fc8d76608c19f2e1701ed0460405160405180910390a36000600560008581526020019081526020016000206004015490506040518060c001604052808581526020013373ffffffffffffffffffffffffffffffffffffffff168152602001848152602001600115158152602001828152602001836001811115610b4857610b47611ba2565b5b815250600560008681526020019081526020016000206000820151816000015560208201518160010160006101000a81548173ffffffffffffffffffffffffffffffffffffffff021916908373ffffffffffffffffffffffffffffffffffffffff1602179055506040820151816002015560608201518160030160006101000a81548160ff0219169083151502179055506080820151816004015560a08201518160050160006101000a81548160ff02191690836001811115610c0e57610c0d611ba2565b5b02179055509050503373ffffffffffffffffffffffffffffffffffffffff16847fa29262303591d48ce94646a46b652916ce782073349bb5dc261ac4c5237d939785604051610c5d9190611d0d565b60405180910390a350505050565b60008054906101000a900473ffffffffffffffffffffffffffffffffffffffff1681565b600080600460008081526020019081526020016000208054905090508091505090565b60015481565b60008054906101000a900473ffffffffffffffffffffffffffffffffffffffff1673ffffffffffffffffffffffffffffffffffffffff163373ffffffffffffffffffffffffffffffffffffffff1614610d46576040517f08c379a0000000000000000000000000000000000000000000000000000000008152600401610d3d90611ef5565b60405180910390fd5b6005811115610d8a576040517f08c379a0000000000000000000000000000000000000000000000000000000008152600401610d81906122da565b60405180910390fd5b8060018190555050565b60008054906101000a900473ffffffffffffffffffffffffffffffffffffffff1673ffffffffffffffffffffffffffffffffffffffff163373ffffffffffffffffffffffffffffffffffffffff1614610e22576040517f08c379a0000000000000000000000000000000000000000000000000000000008152600401610e1990611ef5565b60405180910390fd5b60006005600083815260200190815260200160002090508060030160009054906101000a900460ff16610e8a576040517f08c379a0000000000000000000000000000000000000000000000000000000008152600401610e8190611f61565b60405180910390fd5b8060040154421015610ed1576040517f08c379a0000000000000000000000000000000000000000000000000000000008152600401610ec890612346565b60405180910390fd5b60008160010160009054906101000a900473ffffffffffffffffffffffffffffffffffffffff1690506000826002015490506000600660009054906101000a900473ffffffffffffffffffffffffffffffffffffffff1673ffffffffffffffffffffffffffffffffffffffff16636352211e866040518263ffffffff1660e01b8152600401610f609190611d0d565b60206040518083038186803b158015610f7857600080fd5b505afa158015610f8c573d6000803e3d6000fd5b505050506040513d601f19601f82011682018060405250810190610fb0919061213d565b9050600660009054906101000a900473ffffffffffffffffffffffffffffffffffffffff1673ffffffffffffffffffffffffffffffffffffffff166323b872dd8285886040518463ffffffff1660e01b815260040161101193929190612387565b600060405180830381600087803b15801561102b57600080fd5b505af115801561103f573d6000803e3d6000fd5b50505050600060646001548461105591906123ed565b61105f9190612476565b90506000818461106f91906124a7565b90508273ffffffffffffffffffffffffffffffffffffffff166108fc829081150290604051600060405180830381858888f193505050501580156110b7573d6000803e3d6000fd5b5060008660030160006101000a81548160ff0219169083151502179055508473ffffffffffffffffffffffffffffffffffffffff16877fd2aa34a4fdbbc6dff6a3e56f46e0f3ae2a31d7785ff3487aa5c95c642acea5018660405161111c9190611d0d565b60405180910390a350505050505050565b60006005600083815260200190815260200160002090508060030160009054906101000a900460ff16611195576040517f08c379a000000000000000000000000000000000000000000000000000000000815260040161118c90612527565b60405180910390fd5b3373ffffffffffffffffffffffffffffffffffffffff16600660009054906101000a900473ffffffffffffffffffffffffffffffffffffffff1673ffffffffffffffffffffffffffffffffffffffff16636352211e846040518263ffffffff1660e01b81526004016112079190611d0d565b60206040518083038186803b15801561121f57600080fd5b505afa158015611233573d6000803e3d6000fd5b505050506040513d601f19601f82011682018060405250810190611257919061213d565b73ffffffffffffffffffffffffffffffffffffffff16146112ad576040517f08c379a00000000000000000000000000000000000000000000000000000000081526004016112a4906121dc565b60405180910390fd5b600560008381526020019081526020016000206000808201600090556001820160006101000a81549073ffffffffffffffffffffffffffffffffffffffff021916905560028201600090556003820160006101000a81549060ff021916905560048201600090556005820160006101000a81549060ff0219169055505060008160030160006101000a81548160ff0219169083151502179055503373ffffffffffffffffffffffffffffffffffffffff16827fd9e530acb8429c8e5337d9d3230e4cc7d742e32c2fc8d76608c19f2e1701ed0460405160405180910390a35050565b60025481565b600660009054906101000a900473ffffffffffffffffffffffffffffffffffffffff1681565b60006005600083815260200190815260200160002090508060030160009054906101000a900460ff16611423576040517f08c379a000000000000000000000000000000000000000000000000000000000815260040161141a90612527565b60405180910390fd5b806002015434101561146a576040517f08c379a000000000000000000000000000000000000000000000000000000000815260040161146190612593565b60405180910390fd5b42816004015410156114b1576040517f08c379a00000000000000000000000000000000000000000000000000000000081526004016114a8906125ff565b60405180910390fd5b60008160010160009054906101000a900473ffffffffffffffffffffffffffffffffffffffff1690506000606460015484600201546114f091906123ed565b6114fa9190612476565b905060008360010160009054906101000a900473ffffffffffffffffffffffffffffffffffffffff169050600560008681526020019081526020016000206000808201600090556001820160006101000a81549073ffffffffffffffffffffffffffffffffffffffff021916905560028201600090556003820160006101000a81549060ff021916905560048201600090556005820160006101000a81549060ff02191690555050600082346115b091906124a7565b9050600660009054906101000a900473ffffffffffffffffffffffffffffffffffffffff1673ffffffffffffffffffffffffffffffffffffffff166323b872dd8333896040518463ffffffff1660e01b81526004016116119392919061261f565b600060405180830381600087803b15801561162b57600080fd5b505af115801561163f573d6000803e3d6000fd5b505050508373ffffffffffffffffffffffffffffffffffffffff166108fc829081150290604051600060405180830381858888f19350505050158015611689573d6000803e3d6000fd5b503373ffffffffffffffffffffffffffffffffffffffff168560010160009054906101000a900473ffffffffffffffffffffffffffffffffffffffff1673ffffffffffffffffffffffffffffffffffffffff16877f64b02497e7e7114dfbf373decb8fc827c41794498699d8742beb61a0038f6c5b88600201546040516117109190611d0d565b60405180910390a4505050505050565b3373ffffffffffffffffffffffffffffffffffffffff16600660009054906101000a900473ffffffffffffffffffffffffffffffffffffffff1673ffffffffffffffffffffffffffffffffffffffff16636352211e866040518263ffffffff1660e01b81526004016117929190611d0d565b60206040518083038186803b1580156117aa57600080fd5b505afa1580156117be573d6000803e3d6000fd5b505050506040513d601f19601f820116820180604052508101906117e2919061213d565b73ffffffffffffffffffffffffffffffffffffffff1614611838576040517f08c379a000000000000000000000000000000000000000000000000000000000815260040161182f906121dc565b60405180910390fd5b6000831161187b576040517f08c379a000000000000000000000000000000000000000000000000000000000815260040161187290612248565b60405180910390fd5b6000600560008681526020019081526020016000209050600015158160030160009054906101000a900460ff161515146118ea576040517f08c379a00000000000000000000000000000000000000000000000000000000081526004016118e1906126a2565b60405180910390fd5b6040518060c001604052808681526020013373ffffffffffffffffffffffffffffffffffffffff168152602001858152602001600115158152602001844261193291906126c2565b815260200183600181111561194a57611949611ba2565b5b815250600560008781526020019081526020016000206000820151816000015560208201518160010160006101000a81548173ffffffffffffffffffffffffffffffffffffffff021916908373ffffffffffffffffffffffffffffffffffffffff1602179055506040820151816002015560608201518160030160006101000a81548160ff0219169083151502179055506080820151816004015560a08201518160050160006101000a81548160ff02191690836001811115611a1057611a0f611ba2565b5b02179055509050503373ffffffffffffffffffffffffffffffffffffffff16857fa29262303591d48ce94646a46b652916ce782073349bb5dc261ac4c5237d939786604051611a5f9190611d0d565b60405180910390a35050505050565b60046020528160005260406000208181548110611a8a57600080fd5b9060005260206000209060020201600091509150508060000160009054906101000a900473ffffffffffffffffffffffffffffffffffffffff16908060010154905082565b600080fd5b6000819050919050565b611ae781611ad4565b8114611af257600080fd5b50565b600081359050611b0481611ade565b92915050565b600060208284031215611b2057611b1f611acf565b5b6000611b2e84828501611af5565b91505092915050565b611b4081611ad4565b82525050565b600073ffffffffffffffffffffffffffffffffffffffff82169050919050565b6000611b7182611b46565b9050919050565b611b8181611b66565b82525050565b60008115159050919050565b611b9c81611b87565b82525050565b7f4e487b7100000000000000000000000000000000000000000000000000000000600052602160045260246000fd5b60028110611be257611be1611ba2565b5b50565b6000819050611bf382611bd1565b919050565b6000611c0382611be5565b9050919050565b611c1381611bf8565b82525050565b600060c082019050611c2e6000830189611b37565b611c3b6020830188611b78565b611c486040830187611b37565b611c556060830186611b93565b611c626080830185611b37565b611c6f60a0830184611c0a565b979650505050505050565b60028110611c8757600080fd5b50565b600081359050611c9981611c7a565b92915050565b600080600060608486031215611cb857611cb7611acf565b5b6000611cc686828701611af5565b9350506020611cd786828701611af5565b9250506040611ce886828701611c8a565b9150509250925092565b6000602082019050611d076000830184611b78565b92915050565b6000602082019050611d226000830184611b37565b92915050565b6000819050919050565b6000611d4d611d48611d4384611b46565b611d28565b611b46565b9050919050565b6000611d5f82611d32565b9050919050565b6000611d7182611d54565b9050919050565b611d8181611d66565b82525050565b6000602082019050611d9c6000830184611d78565b92915050565b60008060008060808587031215611dbc57611dbb611acf565b5b6000611dca87828801611af5565b9450506020611ddb87828801611af5565b9350506040611dec87828801611af5565b9250506060611dfd87828801611c8a565b91505092959194509250565b60008060408385031215611e2057611e1f611acf565b5b6000611e2e85828601611af5565b9250506020611e3f85828601611af5565b9150509250929050565b6000604082019050611e5e6000830185611b78565b611e6b6020830184611b37565b9392505050565b600082825260208201905092915050565b7f4f6e6c7920636f6e7472616374206f776e65722063616e2063616c6c2074686960008201527f732066756e6374696f6e00000000000000000000000000000000000000000000602082015250565b6000611edf602a83611e72565b9150611eea82611e83565b604082019050919050565b60006020820190508181036000830152611f0e81611ed2565b9050919050565b7f41756374696f6e206973206e6f74206163746976650000000000000000000000600082015250565b6000611f4b601583611e72565b9150611f5682611f15565b602082019050919050565b60006020820190508181036000830152611f7a81611f3e565b9050919050565b7f41756374696f6e2068617320656e646564000000000000000000000000000000600082015250565b6000611fb7601183611e72565b9150611fc282611f81565b602082019050919050565b60006020820190508181036000830152611fe681611faa565b9050919050565b7f426964206d75737420626520686967686572207468616e2074686520666c6f6f60008201527f7220707269636500000000000000000000000000000000000000000000000000602082015250565b6000612049602783611e72565b915061205482611fed565b604082019050919050565b600060208201905081810360008301526120788161203c565b9050919050565b7f746f6b656e696420617661696c61626c6520666f72206469726563742073616c60008201527f65206f6e6c790000000000000000000000000000000000000000000000000000602082015250565b60006120db602683611e72565b91506120e68261207f565b604082019050919050565b6000602082019050818103600083015261210a816120ce565b9050919050565b61211a81611b66565b811461212557600080fd5b50565b60008151905061213781612111565b92915050565b60006020828403121561215357612152611acf565b5b600061216184828501612128565b91505092915050565b7f4f6e6c792074686520746f6b656e206f776e65722063616e206372656174652060008201527f612073616c650000000000000000000000000000000000000000000000000000602082015250565b60006121c6602683611e72565b91506121d18261216a565b604082019050919050565b600060208201905081810360008301526121f5816121b9565b9050919050565b7f5072696365206d7573742062652067726561746572207468616e207a65726f00600082015250565b6000612232601f83611e72565b915061223d826121fc565b602082019050919050565b6000602082019050818103600083015261226181612225565b9050919050565b7f4665652070657263656e74616765206d757374206265206c657373207468616e60008201527f206f7220657175616c20746f2035000000000000000000000000000000000000602082015250565b60006122c4602e83611e72565b91506122cf82612268565b604082019050919050565b600060208201905081810360008301526122f3816122b7565b9050919050565b7f41756374696f6e20686173206e6f7420656e6465642079657400000000000000600082015250565b6000612330601983611e72565b915061233b826122fa565b602082019050919050565b6000602082019050818103600083015261235f81612323565b9050919050565b600061237182611d54565b9050919050565b61238181612366565b82525050565b600060608201905061239c6000830186612378565b6123a96020830185611b78565b6123b66040830184611b37565b949350505050565b7f4e487b7100000000000000000000000000000000000000000000000000000000600052601160045260246000fd5b60006123f882611ad4565b915061240383611ad4565b9250817fffffffffffffffffffffffffffffffffffffffffffffffffffffffffffffffff048311821515161561243c5761243b6123be565b5b828202905092915050565b7f4e487b7100000000000000000000000000000000000000000000000000000000600052601260045260246000fd5b600061248182611ad4565b915061248c83611ad4565b92508261249c5761249b612447565b5b828204905092915050565b60006124b282611ad4565b91506124bd83611ad4565b9250828210156124d0576124cf6123be565b5b828203905092915050565b7f53616c65206973206e6f74206163746976650000000000000000000000000000600082015250565b6000612511601283611e72565b915061251c826124db565b602082019050919050565b6000602082019050818103600083015261254081612504565b9050919050565b7f496e73756666696369656e74207061796d656e74000000000000000000000000600082015250565b600061257d601483611e72565b915061258882612547565b602082019050919050565b600060208201905081810360008301526125ac81612570565b9050919050565b7f73616c6520656e64656400000000000000000000000000000000000000000000600082015250565b60006125e9600a83611e72565b91506125f4826125b3565b602082019050919050565b60006020820190508181036000830152612618816125dc565b9050919050565b60006060820190506126346000830186611b78565b6126416020830185611b78565b61264e6040830184611b37565b949350505050565b7f746f6b656e20697320616c7265616479206c697374656420666f722073616c65600082015250565b600061268c602083611e72565b915061269782612656565b602082019050919050565b600060208201905081810360008301526126bb8161267f565b9050919050565b60006126cd82611ad4565b91506126d883611ad4565b9250827fffffffffffffffffffffffffffffffffffffffffffffffffffffffffffffffff0382111561270d5761270c6123be565b5b82820190509291505056fea264697066735822122098847deaca7241243c54fd3bdf155bf0c8c65bbffa37fdb0d4b2129c5546537a64736f6c63430008090033",
  "linkReferences": {},
  "deployedLinkReferences": {}
}